:100000000C9446000C9465000C9465000C946500FB
:100010000C9465000C9465000C9465000C946500CC
:100020000C9465000C9465000C9465000C946500BC
:100030000C9465000C941E020C9465000C946500F1
:100040000C9465000C9465000C9465000C9465009C
:100050000C9465000C9465000C9465000C9465008C
:100060000C9465000C9465000C9465000C9465007C
:100070000C9465000C9465000C9465000C9465006C
:100080000C9465000C9465000C94650011241FBE4F
:10009000CFEFD0E4DEBFCDBF11E0A0E0B1E0EAEEEB
:1000A000F4E100E00BBF02C007900D92A039B10748
:1000B000D9F721E0A0E9B1E001C01D92AB3DB20744
:1000C000E1F70E9492060C94730A0C940000CF93FF
:1000D000DF9300D01F92CDB7DEB789836A834B834D
:1000E0008B81882371F08A81282F30E081E090E0B5
:1000F00002C0880F991F2A95E2F7982F8981892BD2
:100100000EC08A81282F30E081E090E002C0880F85
:10011000991F2A95E2F7982F9095898189230F904E
:100120000F900F90DF91CF910895CF93DF9300D080
:10013000CDB7DEB789836A838A81282F30E081E0DA
:1001400090E002C0880F991F2A95E2F7982F8981C5
:1001500089230F900F90DF91CF9108950F931F93F4
:10016000CF93DF93CDB7DEB708E210E040E064E064
:100170008FEF0E946700F8018083000086E290E024
:10018000FC018081809560E00E949500882311F039
:1001900081E3D3C086E290E0FC018081809561E03C
:1001A0000E949500882311F084E3C7C086E290E0A6
:1001B000FC018081809562E00E949500882311F007
:1001C00087E3BBC086E290E0FC018081809563E01C
:1001D0000E949500882311F08AE2AFC008E210E087
:1001E00040E065E08FEF0E946700F8018083000027
:1001F00086E290E0FC018081809560E00E9495009D
:10020000882311F082E399C086E290E0FC018081AE
:10021000809561E00E949500882311F085E38DC0F0
:1002200086E290E0FC018081809562E00E9495006A
:10023000882311F088E381C086E290E0FC01808190
:10024000809563E00E949500882311F080E375C0DB
:1002500008E210E040E066E08FEF0E946700F801DE
:100260008083000086E290E0FC018081809560E060
:100270000E949500882311F083E35FC086E290E03E
:10028000FC018081809561E00E949500882311F037
:1002900086E353C086E290E0FC018081809562E0B5
:1002A0000E949500882311F089E347C086E290E020
:1002B000FC018081809563E00E949500882311F005
:1002C00083E23BC008E210E040E067E08FEF0E946D
:1002D0006700F8018083000086E290E0FC018081E5
:1002E000809560E00E949500882311F081E425C08C
:1002F00086E290E0FC018081809561E00E9495009B
:10030000882311F082E419C086E290E0FC0180812C
:10031000809562E00E949500882311F083E40DC06F
:1003200086E290E0FC018081809563E00E94950068
:10033000882311F084E401C080E0DF91CF911F9108
:100340000F910895CF93DF9300D000D0CDB7DEB7E3
:1003500069837A838B839C8389819A81AB81BC81F9
:100360008093000190930101A0930201B0930301D7
:100370008091000190910101A0910201B0910301CF
:100380008093910190939201A0939301B093940173
:1003900000000F900F900F900F90DF91CF91089574
:1003A000CF93DF93CDB7DEB781E890E02BE0FC017F
:1003B000208388E890E02DE730E0FC013183208342
:1003C0008FE690E022E0FC01208384E890E0FC01CD
:1003D000118210828091000190910101A09102018F
:1003E000B09103018093910190939201A0939301A6
:1003F000B09394018FE590E02FE530E0F901208182
:100400002068FC0120830000DF91CF910895CF93F5
:10041000DF93CDB7DEB781E890E0FC0110820000E9
:10042000DF91CF910895CF93DF93CDB7DEB781E011
:10043000809390010000DF91CF9108951F920F9259
:1004400000905F000F92112400905B000F922F9399
:100450003F934F935F936F937F938F939F93AF934C
:10046000BF93EF93FF93CF93DF93CDB7DEB7809128
:10047000910190919201A0919301B0919401019703
:10048000A109B1098093910190939201A0939301E6
:10049000B09394018091910190919201A091930168
:1004A000B0919401892B8A2B8B2B91F40E9413021B
:1004B0008091000190910101A0910201B09103018E
:1004C0008093910190939201A0939301B093940132
:1004D0000000DF91CF91FF91EF91BF91AF919F917C
:1004E0008F917F916F915F914F913F912F910F90DD
:1004F00000925B000F9000925F000F901F90189584
:10050000CF93DF9300D01F92CDB7DEB789837B8373
:100510006A8389818A3031F48A819B81BC018DE0B4
:100520000E94800280EC90E0FC018081882F90E0A6
:1005300080729927892BB1F386EC90E02981FC0128
:10054000208380E090E00F900F900F90DF91CF918B
:1005500008950F931F93CF93DF9300D000D0CDB7B2
:10056000DEB769837A838B839C8380919D01909110
:100570009E01A0919F01B091A0019C01AD016981F4
:100580007A818B819C810E94A208882309F477C01C
:1005900020E030E0A90169817A818B819C810E94F1
:1005A000A208882351F481E990E021E930E0F901C3
:1005B00020812870FC01208309C081E990E021E9B5
:1005C00030E0F90120812360FC01208328E539E334
:1005D00044E75FE369817A818B819C810E94A20854
:1005E000882344F488E990E02FEF3FEFFC0131834A
:1005F000208334C020E034E244EF56E469817A81FC
:100600008B819C810E94010A181634F488E990E0DD
:10061000FC011182108222C008E910E020E030E0E5
:1006200040E053E469817A818B819C810E94060AB3
:10063000DC01CB019C01AD0160E074E284EF9AE43F
:100640000E94A708DC01CB01BC01CD010E94190961
:10065000DC01CB010197F8019183808384E990E06C
:10066000FC011182108289819A81AB81BC818093C7
:100670009D0190939E01A0939F01B093A001000063
:100680000F900F900F900F90DF91CF911F910F91CE
:100690000895CF93DF93CDB7DEB780E990E020E4F3
:1006A000FC01208381E990E02BE0FC01208360E0E5
:1006B00070E0CB010E94A9020000DF91CF91089564
:1006C000CF93DF93CDB7DEB780E990E0FC011082D5
:1006D00081E990E0FC0110820000DF91CF91089544
:1006E000CF93DF9300D0CDB7DEB79A83898389811A
:1006F0009A8181309105C9F0823091051CF4892BD3
:1007000041F06CC082309105F1F0039709F458C0B4
:1007100065C00E94AE00833229F481E090E09A83A4
:1007200089835EC01A8219825BC00E94AE00882352
:1007300029F482E090E09A83898352C081E090E0BE
:100740009A8389834DC080919501282F30E0809154
:100750001701909118012817390731F41A8219826C
:1007600081E0809396013CC00E94AE00882319F17D
:100770000E94AE00282F80919501882F90E08E5E18
:100780009E4FFC018081281799F485E290E023E2D6
:1007900030E0F90120812F5FFC01208383E090E0AD
:1007A0009A838983809195018F5F8093950118C00A
:1007B0001A82198215C082E090E09A83898310C062
:1007C0000E94AE00882329F482E090E09A83898316
:1007D00007C083E090E09A83898302C01A8219825D
:1007E00089819A81019709F003C010929501000058
:1007F00089819A810F900F90DF91CF910895CF93C7
:10080000DF9300D01F92CDB7DEB79B838A8380E24F
:1008100090E0FC018081882F90E08170992721E091
:10082000892B09F020E029838A819B81009719F0A8
:10083000019771F017C08981882339F081E090E039
:100840009B838A83109296010FC01B821A820CC070
:1008500081E09981992309F480E0882F90E09B83BF
:100860008A8302C01B821A828A819B810F900F901B
:100870000F90DF91CF910895EF92FF920F931F9306
:10088000CF93DF9300D01F92CDB7DEB79B838A83CF
:1008900080E290E0FC0180818095807889838A8164
:1008A0009B818130910551F082309105A1F0892B17
:1008B00059F581E090E09B838A8329C08981882350
:1008C00029F082E090E09B838A8321C081E090E060
:1008D0009B838A831CC08091D9018A3028F482E0EE
:1008E00090E09B838A8313C081E090E09B838A839E
:1008F00060E070E0CB010E94A9021092D901109231
:10090000DA011092D80103C01B821A8200008A818A
:100910009B81009719F0029741F07FC01092D90196
:100920001092DA011092D80178C08091DA01882FF4
:1009300090E0092E000CAA0BBB0BBC01CD010E945C
:1009400051097B018C018091D901882F90E0880F9B
:10095000991F880F991F835C9E4FFC0180819181B4
:10096000A281B3819C01AD01C801B7010E94A20818
:100970008823CCF48091D901882F90E0880F991FAB
:10098000880F991F875E9E4FFC0180819181A28113
:10099000B381BC01CD010E94A9028091DA018F5F71
:1009A0008093DA0139C08091D801882F90E0092E18
:1009B000000CAA0BBB0BBC01CD010E9451097B01AD
:1009C0008C018091D901882F90E0880F991F880FA2
:1009D000991F8F599E4FFC0180819181A281B38123
:1009E0009C01AD01C801B7010E94A20888235CF4F4
:1009F00060E070E0CB010E94A9028091D8018F5F76
:100A00008093D80109C08091D9018F5F8093D9016B
:100A10001092DA011092D80100008A819B810F9018
:100A20000F900F90DF91CF911F910F91FF90EF905A
:100A300008950F931F93CF93DF9300D01F92CDB7EC
:100A4000DEB79B838A8380E290E0FC018081882F5F
:100A500090E08170992721E0892B09F020E029831B
:100A60008A819B818230910509F45BC083309105B6
:100A70002CF4009779F00197F1F0BFC08430910514
:100A800009F472C0843091050CF459C0059709F43B
:100A9000A6C0B3C08981882359F00E94AE008A3273
:100AA00039F481E090E09B838A8310929B01A9C076
:100AB0001B821A82A6C080919B01843029F483E0B6
:100AC00090E09B838A839DC08981882349F00E949E
:100AD000AE008A3229F481E090E09B838A8320C0B3
:100AE00089818823D1F00E94AE008823B1F082E092
:100AF00090E09B838A8380919B01082F10E00E94E5
:100B0000AE00282FC80189569E4FFC01208380919A
:100B10009B018F5F80939B0103C01B821A8271C06F
:100B200070C00E94AE008A3229F481E090E09B837D
:100B30008A8367C082E090E09B838A8362C0898158
:100B4000882369F40E94AE008A3249F084E090E084
:100B50009B838A8310929B0110929C0152C083E078
:100B600090E09B838A834DC080919C01863118F070
:100B70001B821A8245C080919B018430C9F41B827C
:100B80001A8280919701809312018091980180933D
:100B90001301809199018093140180919A018093AF
:100BA000150184E090E0909318018093170128C00C
:100BB0000E94AE00282F80919B01882F90E08956DB
:100BC0009E4FFC0180812817D9F485E090E09B833B
:100BD0008A8380919B018F5F80939B0111C00E944B
:100BE000AE00882329F484E090E09B838A8309C0C7
:100BF00085E090E09B838A8304C01B821A8201C037
:100C000000008A819B81049709F006C080919C01B5
:100C10008F5F80939C0100008A819B810F900F90D1
:100C20000F90DF91CF911F910F910895CF93DF9394
:100C300000D01F92CDB7DEB79B838A838A819B81C8
:100C4000892B19F41B821A8203C01B821A820000AE
:100C50008A819B81892B61F480919601882F90E095
:100C60009695982F882797958795806489830000AB
:100C700085E290E02981FC0120838A819B810F908D
:100C80000F900F90DF91CF910895CF93DF93CDB761
:100C9000DEB72C970FB6F894DEBF0FBECDBF6D83C5
:100CA0007E838F83988729873A874B875C878D81DE
:100CB0009E81AF81B88529853A854B855C85BC01CD
:100CC000CD010E948008DC01CB0189839A83AB832C
:100CD000BC8389819A81AB81BC81892B8A2B8B2B28
:100CE00029F489859A85AB85BC8511C089859A854B
:100CF000AB85BC858D839E83AF83B88789819A81BC
:100D0000AB81BC8189879A87AB87BC87D0CFBC0178
:100D1000CD012C960FB6F894DEBF0FBECDBFDF918C
:100D2000CF9108950F931F93CF93DF93CDB7DEB785
:100D300064970FB6F894DEBF0FBECDBF81E290E09E
:100D4000FC01108282E290E02FEFFC01208384E21C
:100D500090E02FEFFC01208385E290E020E4FC018D
:100D6000208387E290E020EFFC01208388E290E07E
:100D70002FE0FC0120838AE0E5E8F1E0DE011B962C
:100D800001900D928A95E1F785E090E098878F8336
:100D90008FEF898789858093A10188EC90E0A0E09E
:100DA000B0E08093A2019093A301A093A401B0931B
:100DB000A5018091A2019091A301A091A401B091FD
:100DC000A5018093A6019093A701A093A801B093D9
:100DD000A90180E793E09093AB018093AA018985F4
:100DE0008093AC0188EC90E0A0E0B0E08093AD018E
:100DF0009093AE01A093AF01B093B0018091AD018B
:100E00009091AE01A091AF01B091B0018093B1017A
:100E10009093B201A093B301B093B4018FEF93E02C
:100E20009093B6018093B50189858093B70184E6DC
:100E300090E0A0E0B0E08093B8019093B901A09356
:100E4000BA01B093BB018091B8019091B901A09112
:100E5000BA01B091BB018093BC019093BD01A093F6
:100E6000BE01B093BF0186E196E09093C1018093EB
:100E7000C00189858093C20188EC90E0A0E0B0E0D9
:100E80008093C3019093C401A093C501B093C601A0
:100E90008091C3019091C401A091C501B091C60198
:100EA0008093C7019093C801A093C901B093CA0170
:100EB0008CE394E09093CC018093CB01898580935F
:100EC000CD0184E690E0A0E0B0E08093CE01909365
:100ED000CF01A093D001B093D1018091CE01909128
:100EE000CF01A091D001B091D1018093D201909314
:100EF000D301A093D401B093D50189E195E09093FB
:100F0000D7018093D6018B859C85FC0181819281DC
:100F1000A381B4818B839C83AD83BE831A821982A3
:100F200025C089819A81880F991F9E012F5F3F4FAD
:100F3000820F931F0A96FC0180819181FC0121811F
:100F40003281438154818B819C81AD81BE81BC0102
:100F5000CD010E944506DC01CB018B839C83AD83D0
:100F6000BE8389819A8101969A83898329813A81F6
:100F70008F81988528173907A0F28B818A878A8507
:100F8000882F90E0A0E0B0E0BC01CD010E94A2015A
:100F90000E94D0010E9449031A821982A1C089814E
:100FA0009A81880F991F9E012F5F3F4F820F931FD9
:100FB0000A96FC0180819181FC012581368147815F
:100FC000508589819A81880F991FBE016F5F7F4F7D
:100FD000860F971F0A96FC0180819181FC01818117
:100FE0009281A381B481281739074A075B0709F06A
:100FF00045C089819A81880F991F9E012F5F3F4FBD
:10100000820F931F0A96FC010081118189819A81C8
:10101000880F991F9E012F5F3F4F820F931F0A96E3
:10102000FC0180819181FC012185328589819A8131
:10103000880F991FAE014F5F5F4F840F951F0A966F
:10104000FC0180819181FC018081082E000C990BAC
:10105000F9010995F801808389819A81880F991F88
:101060009E012F5F3F4F820F931F0A96FC018081E4
:101070009181FC01158216821782108689819A81DE
:10108000880F991F9E012F5F3F4F820F931F0A9673
:10109000FC016081718189819A81880F991F9E016D
:1010A0002F5F3F4F820F931F0A96FC018081918131
:1010B000FC0125813681478150858A85882F90E003
:1010C000A0E0B0E0820F931FA41FB51FFB01858332
:1010D0009683A783B08789819A8101969A838983B1
:1010E00029813A818F8198852817390708F457CFCD
:1010F0000000809190018823E1F3109290014CCF81
:10110000A1E21A2EAA1BBB1BFD010DC0AA1FBB1F0B
:10111000EE1FFF1FA217B307E407F50720F0A21B7D
:10112000B30BE40BF50B661F771F881F991F1A94EA
:1011300069F760957095809590959B01AC01BD0114
:10114000CF0108950E948C0908F481E008950E945F
:10115000BB080C94C7090E94C00958F00E94B90945
:1011600040F029F45F3F29F00C94B00951110C9420
:10117000FB090C94B6090E94D80968F39923B1F3CE
:10118000552391F3951B550BBB27AA2762177307AD
:10119000840738F09F5F5F4F220F331F441FAA1F41
:1011A000A9F335D00E2E3AF0E0E832D091505040FD
:1011B000E695001CCAF72BD0FE2F29D0660F771FAB
:1011C000881FBB1F261737074807AB07B0E809F091
:1011D000BB0B802DBF01FF2793585F4F3AF09E3F16
:1011E000510578F00C94B0090C94FB095F3FE4F3CF
:1011F000983ED4F3869577956795B795F7959F5F59
:10120000C9F7880F911D9695879597F90895E1E0A4
:10121000660F771F881FBB1F621773078407BA0703
:1012200020F0621B730B840BBA0BEE1F88F7E0955E
:1012300008950E9420096894B1110C94FB09089547
:101240000E94E00988F09F5798F0B92F9927B7516D
:10125000B0F0E1F0660F771F881F991F1AF0BA955A
:10126000C9F714C0B13091F00E94FA09B1E00895B5
:101270000C94FA09672F782F8827B85F39F0B93FA7
:10128000CCF3869577956795B395D9F73EF490950D
:101290008095709561957F4F8F4F9F4F0895E8948B
:1012A00009C097FB3EF490958095709561957F4FAE
:1012B0008F4F9F4F9923A9F0F92F96E9BB2793955C
:1012C000F695879577956795B795F111F8CFFAF46C
:1012D000BB0F11F460FF1BC06F5F7F4F8F4F9F4F9D
:1012E00016C0882311F096E911C0772321F09EE8FB
:1012F000872F762F05C0662371F096E8862F70E061
:1013000060E02AF09A95660F771F881FDAF7880F3A
:101310009695879597F90895990F0008550FAA0B90
:10132000E0E8FEEF16161706E807F907C0F01216F8
:101330001306E407F50798F0621B730B840B950BFB
:1013400039F40A2661F0232B242B252B21F4089550
:101350000A2609F4A140A6958FEF811D811D0895ED
:1013600097F99F6780E870E060E008959FEF80EC58
:10137000089500240A9416161706180609060895FB
:1013800000240A9412161306140605060895092E61
:101390000394000C11F4882352F0BB0F40F4BF2BD0
:1013A00011F460FF04C06F5F7F4F8F4F9F4F089510
:1013B00057FD9058440F551F59F05F3F71F0479506
:1013C000880F97FB991F61F09F3F79F087950895EB
:1013D000121613061406551FF2CF4695F1DF08C00A
:1013E000161617061806991FF1CF86957105610527
:1013F00008940895E894BB2766277727CB0197F9CF
:1014000008950E948C0908F48FEF08950E94190A2C
:101410000C94C7090E94B90938F00E94C00920F055
:10142000952311F00C94B0090C94B60911240C9476
:10143000FB090E94D80970F3959FC1F3950F50E006
:10144000551F629FF001729FBB27F00DB11D639F76
:10145000AA27F00DB11DAA1F649F6627B00DA11D1C
:10146000661F829F2227B00DA11D621F739FB00DC2
:10147000A11D621F839FA00D611D221F749F332732
:10148000A00D611D231F849F600D211D822F762FCB
:101490006A2F11249F5750409AF0F1F088234AF0A8
:1014A000EE0FFF1FBB1F661F771F881F9150504014
:1014B000A9F79E3F510580F00C94B0090C94FB09EC
:1014C0005F3FE4F3983ED4F3869577956795B7959B
:1014D000F795E7959F5FC1F7FE2B880F911D9695B5
:0A14E000879597F90895F894FFCF5F
:1014EA00010000000000000200000000800200006D
:1014FA000000313233343505007BD492431FD512B4
:10150A00440000DC4366A6CF430000C443719DAE8D
:10151A00437BD49243719DAE430000C44300000054
:10152A0040000000400000004000000040000000B1
:10153A0040000000400000803F0000803F00008023
:10154A003F0000803F0000803F0000004000008014
:10155A003F0000803F0000803F00000000000000C4
:10156A000000000000A101B701AC01C201CD0100D9
:00000001FF
