:100000000C9446000C9465000C9465000C946500FB
:100010000C9465000C9465000C9465000C946500CC
:100020000C9465000C9465000C9465000C946500BC
:100030000C9465000C941E020C9465000C946500F1
:100040000C9465000C9465000C9465000C9465009C
:100050000C9465000C9465000C9465000C9465008C
:100060000C9465000C9465000C9465000C9465007C
:100070000C9465000C9465000C9465000C9465006C
:100080000C9465000C9465000C94650011241FBE4F
:10009000CFEFD0E4DEBFCDBF11E0A0E0B1E0E0E6FD
:1000A000FBE000E00BBF02C007900D92A032B10749
:1000B000D9F721E0A0E2B1E001C01D92A834B20757
:1000C000E1F70E94EB030C94AE050C940000CF9373
:1000D000DF9300D01F92CDB7DEB789836A834B834D
:1000E0008B81882371F08A81282F30E081E090E0B5
:1000F00002C0880F991F2A95E2F7982F8981892BD2
:100100000EC08A81282F30E081E090E002C0880F85
:10011000991F2A95E2F7982F9095898189230F904E
:100120000F900F90DF91CF910895CF93DF9300D080
:10013000CDB7DEB789836A838A81282F30E081E0DA
:1001400090E002C0880F991F2A95E2F7982F8981C5
:1001500089230F900F90DF91CF9108950F931F93F4
:10016000CF93DF93CDB7DEB708E210E040E064E064
:100170008FEF0E946700F8018083000086E290E024
:10018000FC018081809560E00E949500882311F039
:1001900081E3D3C086E290E0FC018081809561E03C
:1001A0000E949500882311F084E3C7C086E290E0A6
:1001B000FC018081809562E00E949500882311F007
:1001C00087E3BBC086E290E0FC018081809563E01C
:1001D0000E949500882311F08AE2AFC008E210E087
:1001E00040E065E08FEF0E946700F8018083000027
:1001F00086E290E0FC018081809560E00E9495009D
:10020000882311F082E399C086E290E0FC018081AE
:10021000809561E00E949500882311F085E38DC0F0
:1002200086E290E0FC018081809562E00E9495006A
:10023000882311F088E381C086E290E0FC01808190
:10024000809563E00E949500882311F080E375C0DB
:1002500008E210E040E066E08FEF0E946700F801DE
:100260008083000086E290E0FC018081809560E060
:100270000E949500882311F083E35FC086E290E03E
:10028000FC018081809561E00E949500882311F037
:1002900086E353C086E290E0FC018081809562E0B5
:1002A0000E949500882311F089E347C086E290E020
:1002B000FC018081809563E00E949500882311F005
:1002C00083E23BC008E210E040E067E08FEF0E946D
:1002D0006700F8018083000086E290E0FC018081E5
:1002E000809560E00E949500882311F081E425C08C
:1002F00086E290E0FC018081809561E00E9495009B
:10030000882311F082E419C086E290E0FC0180812C
:10031000809562E00E949500882311F083E40DC06F
:1003200086E290E0FC018081809563E00E94950068
:10033000882311F084E401C080E0DF91CF911F9108
:100340000F910895CF93DF9300D000D0CDB7DEB7E3
:1003500069837A838B839C8389819A81AB81BC81F9
:100360008093000190930101A0930201B0930301D7
:100370008091000190910101A0910201B0910301CF
:100380008093210190932201A0932301B093240133
:1003900000000F900F900F900F90DF91CF91089574
:1003A000CF93DF93CDB7DEB781E890E02BE0FC017F
:1003B000208388E890E02DE730E0FC013183208342
:1003C0008FE690E022E0FC01208384E890E0FC01CD
:1003D000118210828091000190910101A09102018F
:1003E000B09103018093210190932201A0932301F6
:1003F000B09324018FE590E02FE530E0F9012081F2
:100400002068FC0120830000DF91CF910895CF93F5
:10041000DF93CDB7DEB781E890E0FC0110820000E9
:10042000DF91CF910895CF93DF93CDB7DEB781E011
:10043000809320010000DF91CF9108951F920F92C9
:1004400000905F000F92112400905B000F922F9399
:100450003F934F935F936F937F938F939F93AF934C
:10046000BF93EF93FF93CF93DF93CDB7DEB7809128
:10047000210190912201A0912301B09124010197C3
:10048000A109B1098093210190932201A093230136
:10049000B09324018091210190912201A091230128
:1004A000B0912401892B8A2B8B2B91F40E9413028B
:1004B0008091000190910101A0910201B09103018E
:1004C0008093210190932201A0932301B0932401F2
:1004D0000000DF91CF91FF91EF91BF91AF919F917C
:1004E0008F917F916F915F914F913F912F910F90DD
:1004F00000925B000F9000925F000F901F90189584
:10050000CF93DF9300D01F92CDB7DEB789837B8373
:100510006A8389818A3031F48A819B81BC018DE0B4
:100520000E94800280EC90E0FC018081882F90E0A6
:1005300080729927892BB1F386EC90E02981FC0128
:10054000208380E090E00F900F900F90DF91CF918B
:100550000895CF93DF9300D0CDB7DEB79A83898318
:1005600089819A8181309105C9F0823091051CF40E
:10057000892B41F06CC082309105F1F0039709F4AA
:1005800058C065C00E94AE00833229F481E090E03B
:100590009A8389835EC01A8219825BC00E94AE0072
:1005A000882329F482E090E09A83898352C081E015
:1005B00090E09A8389834DC080912501282F30E0F7
:1005C00080911701909118012817390731F41A8288
:1005D000198281E0809326013CC00E94AE008823EE
:1005E00019F10E94AE00282F80912501882F90E0FC
:1005F0008E5E9E4FFC018081281799F485E290E081
:1006000023E230E0F90120812F5FFC01208383E0A9
:1006100090E09A838983809125018F5F80932501E3
:1006200018C01A82198215C082E090E09A838983EB
:1006300010C00E94AE00882329F482E090E09A83E3
:10064000898307C083E090E09A83898302C01A827D
:10065000198289819A81019709F003C010922501BE
:10066000000089819A810F900F90DF91CF910895BA
:10067000CF93DF9300D0CDB7DEB79A83898389818A
:100680009A81009719F00197A9F025C080E290E0C7
:10069000FC018081882F90E081709927892B39F0A7
:1006A00081E090E09A8389831092260116C01A8215
:1006B000198213C080E290E0FC018081882F90E0D5
:1006C0008170992721E0892B09F420E0822F90E0A6
:1006D0009A83898302C01A82198289819A810F9034
:1006E0000F90DF91CF910895CF93DF9300D01F92A9
:1006F000CDB7DEB79B838A838A819B81892B19F4CE
:100700001B821A8203C01B821A8200008A819B818D
:10071000892B21F4809126018983000085E290E0F5
:100720002981279522272795FC0120838A819B8197
:100730000F900F900F90DF91CF910895CF93DF939B
:10074000CDB7DEB72C970FB6F894DEBF0FBECDBF86
:100750006D837E838F83988729873A874B875C8751
:100760008D819E81AF81B88529853A854B855C85D1
:10077000BC01CD010E948C05DC01CB0189839A83E9
:10078000AB83BC8389819A81AB81BC81892B8A2B05
:100790008B2B29F489859A85AB85BC8511C0898509
:1007A0009A85AB85BC858D839E83AF83B88789810D
:1007B0009A81AB81BC8189879A87AB87BC87D0CF70
:1007C000BC01CD012C960FB6F894DEBF0FBECDBF95
:1007D000DF91CF9108950F931F93CF93DF93CDB700
:1007E000DEB760970FB6F894DEBF0FBECDBF81E2D3
:1007F00090E0FC01108282E290E02FEFFC01208368
:1008000084E290E02FEFFC01208385E290E0FC0180
:10081000108287E290E020EFFC01208388E290E0E4
:100820002FE0FC01208386E0E9E1F1E0DE011B9688
:1008300001900D928A95E1F783E090E098878F838D
:100840008FEF898789858093270182E390E0A0E07C
:10085000B0E08093280190932901A0932A01B093DE
:100860002B018091280190912901A0912A01B0913A
:100870002B0180932C0190932D01A0932E01B09316
:100880002F0189EA92E090933101809330018985AC
:100890008093320184E690E0A0E0B0E080933301E1
:1008A00090933401A0933501B093360180913301C8
:1008B00090913401A0913501B091360180933701B8
:1008C00090933801A0933901B0933A0188E393E003
:1008D00090933C0180933B01898580933D018AE0A0
:1008E00090E0A0E0B0E080933E0190933F01A093A0
:1008F0004001B093410180913E0190913F01A09150
:100900004001B09141018093420190934301A09333
:100910004401B093450184E793E0909347018093AD
:1009200046018B859C85FC0181819281A381B481E4
:100930008B839C83AD83BE831A82198225C08981F3
:100940009A81880F991F9E012F5F3F4F820F931F3F
:100950000A96FC0180819181FC01218132814381D1
:1009600054818B819C81AD81BE81BC01CD010E94EF
:100970009E03DC01CB018B839C83AD83BE83898185
:100980009A8101969A83898329813A818F819885FA
:1009900028173907A0F28B818A878A85882F90E0F3
:1009A000A0E0B0E0BC01CD010E94A2010E94D001F4
:1009B0001A821982A1C089819A81880F991F9E018C
:1009C0002F5F3F4F820F931F0A96FC018081918118
:1009D000FC01258136814781508589819A81880F64
:1009E000991FBE016F5F7F4F860F971F0A96FC010C
:1009F00080819181FC0181819281A381B48128173A
:100A000039074A075B0709F045C089819A81880F39
:100A1000991F9E012F5F3F4F820F931F0A96FC0183
:100A20000081118189819A81880F991F9E012F5F12
:100A30003F4F820F931F0A96FC0180819181FC0138
:100A40002185328589819A81880F991FAE014F5F78
:100A50005F4F840F951F0A96FC0180819181FC01F4
:100A60008081082E000C990BF9010995F80180830B
:100A700089819A81880F991F9E012F5F3F4F820FB6
:100A8000931F0A96FC0180819181FC0115821682D8
:100A90001782108689819A81880F991F9E012F5F86
:100AA0003F4F820F931F0A96FC01608171818981FB
:100AB0009A81880F991F9E012F5F3F4F820F931FCE
:100AC0000A96FC0180819181FC0125813681478154
:100AD00050858A85882F90E0A0E0B0E0820F931FB8
:100AE000A41FB51FFB0185839683A783B0878981E7
:100AF0009A8101969A83898329813A818F81988589
:100B00002817390708F457CF000080912001882367
:100B1000E1F3109220014CCFA1E21A2EAA1BBB1BBD
:100B2000FD010DC0AA1FBB1FEE1FFF1FA217B307B9
:100B3000E407F50720F0A21BB30BE40BF50B661FCF
:100B4000771F881F991F1A9469F760957095809593
:100B500090959B01AC01BD01CF010895F894FFCFA2
:100B60000100000000000002000000008002000000
:100B700000003132333435050027013D01320100D8
:00000001FF
