:100000000C9446000C9465000C9465000C946500FB
:100010000C9465000C9465000C9465000C946500CC
:100020000C9465000C9465000C9465000C946500BC
:100030000C9465000C941E020C9465000C946500F1
:100040000C9465000C9465000C9465000C9465009C
:100050000C9465000C9465000C9465000C9465008C
:100060000C9465000C9465000C9465000C9465007C
:100070000C9465000C9465000C9465000C9465006C
:100080000C9465000C9465000C94650011241FBE4F
:10009000CFEFD0E4DEBFCDBF11E0A0E0B1E0E4ECF3
:1000A000FBE000E00BBF02C007900D92AA31B10740
:1000B000D9F721E0AAE1B1E001C01D92AE34B20748
:1000C000E1F70E94F8030C94E0050C940000CF9334
:1000D000DF9300D01F92CDB7DEB789836A834B834D
:1000E0008B81882371F08A81282F30E081E090E0B5
:1000F00002C0880F991F2A95E2F7982F8981892BD2
:100100000EC08A81282F30E081E090E002C0880F85
:10011000991F2A95E2F7982F9095898189230F904E
:100120000F900F90DF91CF910895CF93DF9300D080
:10013000CDB7DEB789836A838A81282F30E081E0DA
:1001400090E002C0880F991F2A95E2F7982F8981C5
:1001500089230F900F90DF91CF9108950F931F93F4
:10016000CF93DF93CDB7DEB708E210E040E064E064
:100170008FEF0E946700F8018083000086E290E024
:10018000FC018081809560E00E949500882311F039
:1001900081E3D3C086E290E0FC018081809561E03C
:1001A0000E949500882311F084E3C7C086E290E0A6
:1001B000FC018081809562E00E949500882311F007
:1001C00087E3BBC086E290E0FC018081809563E01C
:1001D0000E949500882311F08AE2AFC008E210E087
:1001E00040E065E08FEF0E946700F8018083000027
:1001F00086E290E0FC018081809560E00E9495009D
:10020000882311F082E399C086E290E0FC018081AE
:10021000809561E00E949500882311F085E38DC0F0
:1002200086E290E0FC018081809562E00E9495006A
:10023000882311F088E381C086E290E0FC01808190
:10024000809563E00E949500882311F080E375C0DB
:1002500008E210E040E066E08FEF0E946700F801DE
:100260008083000086E290E0FC018081809560E060
:100270000E949500882311F083E35FC086E290E03E
:10028000FC018081809561E00E949500882311F037
:1002900086E353C086E290E0FC018081809562E0B5
:1002A0000E949500882311F089E347C086E290E020
:1002B000FC018081809563E00E949500882311F005
:1002C00083E23BC008E210E040E067E08FEF0E946D
:1002D0006700F8018083000086E290E0FC018081E5
:1002E000809560E00E949500882311F081E425C08C
:1002F00086E290E0FC018081809561E00E9495009B
:10030000882311F082E419C086E290E0FC0180812C
:10031000809562E00E949500882311F083E40DC06F
:1003200086E290E0FC018081809563E00E94950068
:10033000882311F084E401C080E0DF91CF911F9108
:100340000F910895CF93DF9300D000D0CDB7DEB7E3
:1003500069837A838B839C8389819A81AB81BC81F9
:100360008093000190930101A0930201B0930301D7
:100370008091000190910101A0910201B0910301CF
:1003800080931B0190931C01A0931D01B0931E014B
:1003900000000F900F900F900F90DF91CF91089574
:1003A000CF93DF93CDB7DEB781E890E02BE0FC017F
:1003B000208388E890E02DE730E0FC013183208342
:1003C0008FE690E022E0FC01208384E890E0FC01CD
:1003D000118210828091000190910101A09102018F
:1003E000B091030180931B0190931C01A0931D0108
:1003F000B0931E018FE590E02FE530E0F9012081F8
:100400002068FC0120830000DF91CF910895CF93F5
:10041000DF93CDB7DEB781E890E0FC0110820000E9
:10042000DF91CF910895CF93DF93CDB7DEB781E011
:1004300080931A010000DF91CF9108951F920F92CF
:1004400000905F000F92112400905B000F922F9399
:100450003F934F935F936F937F938F939F93AF934C
:10046000BF93EF93FF93CF93DF93CDB7DEB7809128
:100470001B0190911C01A0911D01B0911E010197DB
:10048000A109B10980931B0190931C01A0931D0148
:10049000B0931E0180911B0190911C01A0911D0140
:1004A000B0911E01892B8A2B8B2B91F40E94130291
:1004B0008091000190910101A0910201B09103018E
:1004C00080931B0190931C01A0931D01B0931E010A
:1004D0000000DF91CF91FF91EF91BF91AF919F917C
:1004E0008F917F916F915F914F913F912F910F90DD
:1004F00000925B000F9000925F000F901F90189584
:10050000CF93DF9300D01F92CDB7DEB789837B8373
:100510006A8389818A3031F48A819B81BC018DE0B4
:100520000E94800280EC90E0FC018081882F90E0A6
:1005300080729927892BB1F386EC90E02981FC0128
:10054000208380E090E00F900F900F90DF91CF918B
:100550000895CF93DF9300D01F92CDB7DEB79B8372
:100560008A8380E290E0FC018081882F90E0817096
:10057000992721E0892B09F020E029838A819B813A
:100580008130910579F08230910589F0892BB1F4A1
:1005900081E09981913009F080E0882F90E09B8381
:1005A0008A830FC082E090E09B838A830AC081E047
:1005B000898381E090E09B838A8303C01B821A8237
:1005C00000008A819B81019749F49091210181E08B
:1005D000992309F080E08093210101C000008A8105
:1005E0009B810F900F900F90DF91CF910895CF9343
:1005F000DF9300D0CDB7DEB79A83898389819A8152
:10060000009719F0019761F016C09091210181E0E7
:10061000992309F080E0882F90E09A8389830EC0A7
:100620009091210181E0992309F080E0882F90E0EA
:100630009A83898303C01A821982000089819A8172
:10064000009759F0019751F490911F0181E099238F
:1006500009F080E080931F0101C000000E94AE00FD
:10066000882329F080911F01806880931F01898170
:100670009A810F900F90DF91CF910895CF93DF93E0
:1006800000D0CDB7DEB79A83898389819A8100979C
:1006900019F0019761F016C09091210181E0992332
:1006A00009F080E0882F90E09A8389830EC09091B2
:1006B000210181E0992309F080E0882F90E09A835E
:1006C000898303C01A821982000089819A81009768
:1006D00059F0019751F49091200181E0992309F09C
:1006E00080E08093200101C0000089819A810F90F1
:1006F0000F90DF91CF910895CF93DF9300D01F9299
:10070000CDB7DEB79B838A838A819B81892B19F4BD
:100710001B821A8203C01B821A8200008A819B817D
:10072000892B61F480912001882F90E0880F991F18
:10073000982F80911F01892B8983000085E290E02A
:100740002981FC0120838A819B810F900F900F905B
:10075000DF91CF910895CF93DF93CDB7DEB72C977C
:100760000FB6F894DEBF0FBECDBF6D837E838F833F
:10077000988729873A874B875C878D819E81AF81D7
:10078000B88529853A854B855C85BC01CD010E94E1
:10079000BE05DC01CB0189839A83AB83BC8389814D
:1007A0009A81AB81BC81892B8A2B8B2B29F489857B
:1007B0009A85AB85BC8511C089859A85AB85BC853A
:1007C0008D839E83AF83B88789819A81AB81BC81F9
:1007D00089879A87AB87BC87D0CFBC01CD012C9687
:1007E0000FB6F894DEBF0FBECDBFDF91CF91089555
:1007F0000F931F93CF93DF93CDB7DEB762970FB6FA
:10080000F894DEBF0FBECDBF81E290E0FC01108204
:1008100082E290E02FEFFC01208384E290E02FEF52
:10082000FC01208385E290E0FC01108287E290E0E9
:1008300020EFFC01208388E290E02FE0FC01208380
:1008400088E0E2E1F1E0DE011B9601900D928A95CD
:10085000E1F784E090E098878F838FEF898789851F
:100860008093220182E390E0A0E0B0E08093230136
:1008700090932401A0932501B09326018091230138
:1008800090912401A0912501B09126018093270128
:1008900090932801A0932901B0932A0189EA92E05C
:1008A00090932C0180932B01898580932D0184EFF7
:1008B00091E0A0E0B0E080932E0190932F01A093EF
:1008C0003001B093310180912E0190912F01A091C0
:1008D0003001B09131018093320190933301A093A4
:1008E0003401B093350187EF92E090933701809304
:1008F000360189858093380188EE93E0A0E0B0E06E
:100900008093390190933A01A0933B01B0933C014D
:100910008091390190913A01A0913B01B0913C0145
:1009200080933D0190933E01A0933F01B09340011D
:100930008EE393E0909342018093410189858093F7
:1009400043018AE090E0A0E0B0E0809344019093FE
:100950004501A0934601B0934701809144019091D5
:100960004501A0914601B0914701809348019093C1
:100970004901A0934A01B0934B018CE793E0909317
:100980004D0180934C018B859C85FC018181928176
:10099000A381B4818B839C83AD83BE831A82198229
:1009A00025C089819A81880F991F9E012F5F3F4F33
:1009B000820F931F0A96FC0180819181FC012181A5
:1009C0003281438154818B819C81AD81BE81BC0188
:1009D000CD010E94AB03DC01CB018B839C83AD83F3
:1009E000BE8389819A8101969A83898329813A817C
:1009F0008F81988528173907A0F28B818A878A858D
:100A0000882F90E0A0E0B0E0BC01CD010E94A201DF
:100A10000E94D0011A821982A1C089819A81880F0F
:100A2000991F9E012F5F3F4F820F931F0A96FC0173
:100A300080819181FC0125813681478150858981A2
:100A40009A81880F991FBE016F5F7F4F860F971F96
:100A50000A96FC0180819181FC0181819281A381B0
:100A6000B481281739074A075B0709F045C0898117
:100A70009A81880F991F9E012F5F3F4F820F931F0E
:100A80000A96FC010081118189819A81880F991F42
:100A90009E012F5F3F4F820F931F0A96FC018081BA
:100AA0009181FC012185328589819A81880F991F66
:100AB000AE014F5F5F4F840F951F0A96FC01808146
:100AC0009181FC018081082E000C990BF901099598
:100AD000F801808389819A81880F991F9E012F5F79
:100AE0003F4F820F931F0A96FC0180819181FC0188
:100AF000158216821782108689819A81880F991F24
:100B00009E012F5F3F4F820F931F0A96FC01608169
:100B1000718189819A81880F991F9E012F5F3F4FB4
:100B2000820F931F0A96FC0180819181FC0125812F
:100B30003681478150858A85882F90E0A0E0B0E01B
:100B4000820F931FA41FB51FFB0185839683A78384
:100B5000B08789819A8101969A83898329813A8114
:100B60008F8198852817390708F457CF00008091A6
:100B70001A018823E1F310921A014CCFA1E21A2E38
:100B8000AA1BBB1BFD010DC0AA1FBB1FEE1FFF1F31
:100B9000A217B307E407F50720F0A21BB30BE40B81
:100BA000F50B661F771F881F991F1A9469F76095C8
:100BB0007095809590959B01AC01BD01CF01089582
:040BC000F894FFCFD7
:100BC400010000000000000200000000800200009C
:0A0BD400000022012D013801430149
:00000001FF
