:100000000C9446000C9465000C9465000C946500FB
:100010000C9465000C9465000C9465000C946500CC
:100020000C9465000C9465000C9465000C946500BC
:100030000C9465000C94E3000C9465000C9465002E
:100040000C9465000C9465000C9465000C9465009C
:100050000C9465000C9465000C9465000C9465008C
:100060000C9465000C9465000C9465000C9465007C
:100070000C9465000C9465000C9465000C9465006C
:100080000C9465000C9465000C94650011241FBE4F
:10009000CFEFD0E4DEBFCDBF11E0A0E0B1E0E6E3FA
:1000A000FAE000E00BBF02C007900D92AE37B10737
:1000B000D9F721E0AEE7B1E001C01D92AC38B2073C
:1000C000E1F70E941E030C9419050C940000CF93D5
:1000D000DF9300D000D0CDB7DEB769837A838B83FE
:1000E0009C8389819A81AB81BC818093000190932C
:1000F0000101A0930201B09303018091000190914E
:100100000101A0910201B091030180937F019093BE
:100110008001A0938101B093820100000F900F90A5
:100120000F900F90DF91CF910895CF93DF93CDB7CC
:10013000DEB781E890E02BE0FC01208388E890E0C6
:100140002DE730E0FC01318320838FE690E022E050
:10015000FC01208384E890E0FC01118210828091F0
:10016000000190910101A0910201B09103018093DF
:100170007F0190938001A0938101B09382018FE56C
:1001800090E02FE530E0F90120812068FC01208318
:100190000000DF91CF910895CF93DF93CDB7DEB705
:1001A00081E890E0FC0110820000DF91CF9108957A
:1001B000CF93DF93CDB7DEB781E080937E0100005F
:1001C000DF91CF9108951F920F9200905F000F92E0
:1001D000112400905B000F922F933F934F935F93F6
:1001E0006F937F938F939F93AF93BF93EF93FF93FF
:1001F000CF93DF93CDB7DEB780917F0190918001DF
:10020000A0918101B09182010197A109B109809368
:100210007F0190938001A0938101B093820180912E
:100220007F0190918001A0918101B0918201892B81
:100230008A2B8B2B91F40E94D80080910001909121
:100240000101A0910201B091030180937F0190937D
:100250008001A0938101B09382010000DF91CF91D2
:10026000FF91EF91BF91AF919F918F917F916F918E
:100270005F914F913F912F910F9000925B000F90F3
:1002800000925F000F901F901895CF93DF9300D0DE
:100290001F92CDB7DEB789837B836A8389818A30D9
:1002A00031F48A819B81BC018DE00E94450180EC84
:1002B00090E0FC018081882F90E080729927892B43
:1002C000B1F386EC90E02981FC01208380E090E08E
:1002D0000F900F900F90DF91CF9108950F931F9380
:1002E000CF93DF9300D000D0CDB7DEB769837A8398
:1002F0008B839C838091830190918401A0918501DF
:10030000B09186019C01AD0169817A818B819C81CC
:100310000E944803882309F477C020E030E0A90157
:1003200069817A818B819C810E944803882351F4E2
:1003300081E990E021E930E0F90120812870FC0199
:10034000208309C081E990E021E930E0F9012081B2
:100350002360FC01208328E539E344E75FE36981FA
:100360007A818B819C810E944803882344F488E928
:1003700090E02FEF3FEFFC013183208334C020E079
:1003800034E244EF56E469817A818B819C810E943A
:10039000A704181634F488E990E0FC011182108259
:1003A00022C008E910E020E030E040E053E4698139
:1003B0007A818B819C810E94AC04DC01CB019C0181
:1003C000AD0160E074E284EF9AE40E944D03DC0129
:1003D000CB01BC01CD010E94BF03DC01CB01019721
:1003E000F8019183808384E990E0FC0111821082FE
:1003F00089819A81AB81BC81809383019093840130
:10040000A0938501B093860100000F900F900F908C
:100410000F90DF91CF911F910F910895CF93DF93AC
:10042000CDB7DEB780E990E020E4FC01208381E9CC
:1004300090E02BE0FC01208360E070E0CB010E94A3
:100440006E010000DF91CF910895CF93DF93CDB778
:10045000DEB780E990E0FC01108281E990E0FC01C8
:1004600010820000DF91CF910895EF92FF920F93D9
:100470001F93CF93DF93CDB7DEB780918A01909120
:100480008B018130910569F08130910518F0029758
:1004900001F13AC081E090E090938B0180938A0152
:1004A00038C080E290E0FC018081882F90E081706C
:1004B0009927892B39F482E090E090938B01809307
:1004C0008A0127C081E090E090938B0180938A019C
:1004D00020C0809189018A3038F482E090E09093C6
:1004E0008B0180938A0115C081E090E090938B018D
:1004F00080938A0160E070E0CB010E946E0110924F
:1005000089011092870105C010928B0110928A0117
:10051000000080918A0190918B01009719F0029759
:1005200069F084C0109289011092870110928801AD
:1005300085E290E020E4FC01208378C0809187016F
:10054000882F90E0092E000CAA0BBB0BBC01CD013B
:100550000E94F7037B018C0180918901882F90E034
:10056000880F991F880F991F8A5C9E4FFC0180811C
:100570009181A281B3819C01AD01C801B7010E94A4
:1005800048038823CCF480918901882F90E0880F5C
:10059000991F880F991F8E5E9E4FFC01808191816B
:1005A000A281B381BC01CD010E946E0180918701BF
:1005B0008F5F8093870139C080918801882F90E0F8
:1005C000092E000CAA0BBB0BBC01CD010E94F70346
:1005D0007B018C0180918901882F90E0880F991F01
:1005E000880F991F865A9E4FFC0180819181A281BC
:1005F000B3819C01AD01C801B7010E944803882363
:100600005CF460E070E0CB010E946E018091880193
:100610008F5F8093880109C0809189018F5F8093EB
:100620008901109287011092880100000000DF917B
:10063000CF911F910F91FF90EF900895CF93DF938B
:10064000CDB7DEB781E290E0FC01108282E290E05B
:100650002FEFFC01208384E290E02FEFFC01208348
:1006600085E290E0FC01108264E670E080E090E0BA
:100670000E9467000E9495000E940E020E943502AF
:10068000000080917E018823E1F310927E01F6CF75
:100690000E94320408F481E008950E9461030C94E2
:1006A0006D040E94660458F00E945F0440F029F433
:1006B0005F3F29F00C94560451110C94A1040C9442
:1006C0005C040E947E0468F39923B1F3552391F3EF
:1006D000951B550BBB27AA2762177307840738F0B1
:1006E0009F5F5F4F220F331F441FAA1FA9F335D00E
:1006F0000E2E3AF0E0E832D091505040E695001CC2
:10070000CAF72BD0FE2F29D0660F771F881FBB1F7B
:10071000261737074807AB07B0E809F0BB0B802D59
:10072000BF01FF2793585F4F3AF09E3F510578F085
:100730000C9456040C94A1045F3FE4F3983ED4F368
:10074000869577956795B795F7959F5FC9F7880F59
:10075000911D9695879597F90895E1E0660F771FAB
:10076000881FBB1F621773078407BA0720F0621B3C
:10077000730B840BBA0BEE1F88F7E09508950E9467
:10078000C6036894B1110C94A10408950E948604D4
:1007900088F09F5798F0B92F9927B751B0F0E1F042
:1007A000660F771F881F991F1AF0BA95C9F714C0F2
:1007B000B13091F00E94A004B1E008950C94A0041F
:1007C000672F782F8827B85F39F0B93FCCF386952B
:1007D00077956795B395D9F73EF490958095709588
:1007E00061957F4F8F4F9F4F0895E89409C097FB05
:1007F0003EF490958095709561957F4F8F4F9F4FF8
:100800009923A9F0F92F96E9BB279395F69587953B
:1008100077956795B795F111F8CFFAF4BB0F11F4FE
:1008200060FF1BC06F5F7F4F8F4F9F4F16C08823A5
:1008300011F096E911C0772321F09EE8872F762FDB
:1008400005C0662371F096E8862F70E060E02AF01C
:100850009A95660F771F881FDAF7880F9695879508
:1008600097F90895990F0008550FAA0BE0E8FEEFDD
:1008700016161706E807F907C0F012161306E40764
:10088000F50798F0621B730B840B950B39F40A265D
:1008900061F0232B242B252B21F408950A2609F43B
:1008A000A140A6958FEF811D811D089597F99F673F
:1008B00080E870E060E008959FEF80EC08950024E8
:1008C0000A941616170618060906089500240A94B5
:1008D00012161306140605060895092E0394000C3B
:1008E00011F4882352F0BB0F40F4BF2B11F460FFCA
:1008F00004C06F5F7F4F8F4F9F4F089557FD9058F3
:10090000440F551F59F05F3F71F04795880F97FBD3
:10091000991F61F09F3F79F087950895121613068D
:100920001406551FF2CF4695F1DF08C016161706BC
:100930001806991FF1CF86957105610508940895F1
:10094000E894BB2766277727CB0197F908950E9483
:10095000320408F48FEF08950E94BF040C946D04D4
:100960000E945F0438F00E94660420F0952311F085
:100970000C9456040C945C0411240C94A1040E9461
:100980007E0470F3959FC1F3950F50E0551F629F51
:10099000F001729FBB27F00DB11D639FAA27F00DD8
:1009A000B11DAA1F649F6627B00DA11D661F829FFF
:1009B0002227B00DA11D621F739FB00DA11D621FE4
:1009C000839FA00D611D221F749F3327A00D611D01
:1009D000231F849F600D211D822F762F6A2F1124E3
:1009E0009F5750409AF0F1F088234AF0EE0FFF1F16
:1009F000BB1F661F771F881F91505040A9F79E3F6D
:100A0000510580F00C9456040C94A1045F3FE4F36C
:100A1000983ED4F3869577956795B795F795E795C2
:100A20009F5FC1F7FE2B880F911D9695879597F9CB
:060A30000895F894FFCFC9
:100A36000100000000000002000000004501000067
:100A460000007BD492431FD512440000DC4366A607
:100A5600CF430000C443719DAE437BD49243719D46
:100A6600AE430000C4430000004000000040000008
:100A76000040000000400000004000000040000070
:100A8600803F0000803F0000803F0000803F000064
:100A9600803F000000400000803F0000803F0000D3
:0E0AA600803F00000000000000000000000083
:00000001FF
