:100000000C9446000C9465000C9465000C946500FB
:100010000C9465000C9465000C9465000C946500CC
:100020000C9465000C9465000C9465000C946500BC
:100030000C9465000C94E3000C9465000C9465002E
:100040000C9465000C9465000C9465000C9465009C
:100050000C9465000C9465000C9465000C9465008C
:100060000C9465000C9465000C9465000C9465007C
:100070000C9465000C9465000C9465000C9465006C
:100080000C9465000C9465000C94650011241FBE4F
:10009000CFEFD0E4DEBFCDBF11E0A0E0B1E0E2E4FD
:1000A000FCE000E00BBF02C007900D92A231B10747
:1000B000D9F721E0A2E1B1E001C01D92A832B20758
:1000C000E1F70E94A4030C941F060C940000CF9348
:1000D000DF9300D000D0CDB7DEB769837A838B83FE
:1000E0009C8389819A81AB81BC818093000190932C
:1000F0000101A0930201B09303018091000190914E
:100100000101A0910201B09103018093130190932A
:100110001401A0931501B093160100000F900F90E9
:100120000F900F90DF91CF910895CF93DF93CDB7CC
:10013000DEB781E890E02BE0FC01208388E890E0C6
:100140002DE730E0FC01318320838FE690E022E050
:10015000FC01208384E890E0FC01118210828091F0
:10016000000190910101A0910201B09103018093DF
:10017000130190931401A0931501B09316018FE51C
:1001800090E02FE530E0F90120812068FC01208318
:100190000000DF91CF910895CF93DF93CDB7DEB705
:1001A00081E890E0FC0110820000DF91CF9108957A
:1001B000CF93DF93CDB7DEB781E0809312010000CB
:1001C000DF91CF9108951F920F9200905F000F92E0
:1001D000112400905B000F922F933F934F935F93F6
:1001E0006F937F938F939F93AF93BF93EF93FF93FF
:1001F000CF93DF93CDB7DEB78091130190911401B7
:10020000A0911501B09116010197A109B109809340
:10021000130190931401A0931501B09316018091DE
:10022000130190911401A0911501B0911601892B31
:100230008A2B8B2B91F40E94D80080910001909121
:100240000101A0910201B0910301809313019093E9
:100250001401A0931501B09316010000DF91CF9116
:10026000FF91EF91BF91AF919F918F917F916F918E
:100270005F914F913F912F910F9000925B000F90F3
:1002800000925F000F901F901895CF93DF9300D0DE
:100290001F92CDB7DEB789837B836A8389818A30D9
:1002A00031F48A819B81BC018DE00E94450180EC84
:1002B00090E0FC018081882F90E080729927892B43
:1002C000B1F386EC90E02981FC01208380E090E08E
:1002D0000F900F900F90DF91CF910895CF93DF9300
:1002E000CDB7DEB780912301909124018130910533
:1002F00081F08130910530F08230910589F00397CB
:10030000B1F01CC081E090E0909324018093230120
:100310001AC082E090E0909324018093230113C0DF
:1003200083E090E090932401809323010CC081E04E
:1003300090E0909324018093230105C01092240142
:1003400010922301000080912301909124018230BA
:10035000910551F08330910559F0019709F00CC0D7
:1003600081E08093220108C082E08093220104C0D2
:1003700084E08093220100000000DF91CF91089576
:10038000CF93DF93CDB7DEB7809125019091260101
:100390008130910569F08130910518F0029779F06C
:1003A00015C081E090E090932601809325010EC056
:1003B00082E090E0909326018093250107C081E0C0
:1003C00090E0909326018093250100008091250103
:1003D000909126018130910519F0029721F007C014
:1003E0001092270104C088E08093270100000000DC
:1003F000DF91CF910895CF93DF93CDB7DEB7809192
:100400001F01909120018130910581F0813091058B
:1004100030F08230910511F10397C1F14FC081E0B6
:1004200090E09093200180931F0148C080E290E00B
:10043000FC018081882F90E084709927892B39F402
:1004400082E090E09093200180931F0137C081E00B
:1004500090E09093200180931F0130C080E290E0F3
:10046000FC018081882F90E084709927892B39F0D6
:1004700081E090E09093200180931F011FC083E0F2
:1004800090E09093200180931F0118C080E290E0DB
:10049000FC018081882F90E084709927892B39F0A6
:1004A00081E090E09093200180931F0106C082E0DC
:1004B00090E09093200180931F01000080911F0124
:1004C000909120018230910519F0039729F007C01F
:1004D00080E18093210103C01092210100000000FF
:1004E000DF91CF910895CF93DF93CDB7DEB78091A1
:1004F0001B0190911C018130910591F08130910593
:1005000040F08230910509F4A5C0039709F4BAC000
:10051000D1C081E090E090931C0180931B01CAC080
:1005200080E290E0FC018081882F90E08170992723
:10053000892B09F048C080E290E0FC018081882F7F
:1005400090E082709927892B09F43DC080E290E009
:10055000FC018081882F90E084709927892B99F184
:1005600082E090E090931C0180931B018091170121
:1005700090911801A0911901B0911A0120E030E08A
:10058000A901BC01CD010E94F60518160CF061C04E
:100590008091170190911801A0911901B0911A0151
:1005A00020E030E040E85FE3BC01CD010E94CC04D4
:1005B000DC01CB018093170190931801A0931901DE
:1005C000B0931A0146C080E290E0FC018081882F40
:1005D00090E081709927892BA9F180E290E0FC01DD
:1005E0008081882F90E082709927892B59F580E2CD
:1005F00090E0FC018081882F90E084709927892BFE
:1006000009F183E090E090931C0180931B0180919D
:10061000170190911801A0911901B0911A0120E0E1
:1006200030E040E85FE3BC01CD010E94CD04DC0175
:10063000CB018093170190931801A0931901B093F7
:100640001A0107C081E090E090931C0180931B0188
:1006500031C030C080E290E0FC018081882F90E0C2
:1006600081709927892B39F081E090E090931C01EB
:1006700080931B011FC082E090E090931C01809347
:100680001B0118C080E290E0FC018081882F90E07F
:1006900082709927892B39F081E090E090931C01BA
:1006A00080931B0106C083E090E090931C0180932F
:1006B0001B01000080911B0190911C01892B09F006
:1006C0000DC080E090E0A0E4B0E480931701909327
:1006D0001801A0931901B0931A0100000000DF91E6
:1006E000CF910895CF93DF93CDB7DEB780911D01F1
:1006F00090911E01009719F0019739F00CC081E02C
:1007000090E090931E0180931D0181E090E0909312
:100710001E0180931D01000080911D0190911E011A
:10072000019709F00CC085E290E030912201209100
:100730002701322B20912101232BFC012083000073
:100740000000DF91CF910895EF92FF920F931F93D6
:10075000CF93DF93CDB7DEB768970FB6F894DEBFBF
:100760000FBECDBF81E290E0FC01108282E290E0FA
:100770002FEFFC01208384E290E02FEFFC01208327
:1007800085E290E0FC0110828CE291E0A0E0B0E014
:1007900089839A83AB83BC8388EE93E0A0E0B0E0CA
:1007A0008D839E83AF83B887809117019091180144
:1007B000A0911901B0911A01BC01CD010E94390527
:1007C000DC01CB0189879A87AB87BC8781E090E009
:1007D000A0E0B0E08D879E87AF87B88B8CE291E078
:1007E000A0E0B0E0898B9A8BAB8BBC8B81E090E072
:1007F000A0E0B0E08D8B9E8BAF8BB88F8D899E89EA
:10080000AF89B88DBC01CD010E9467000E949500A0
:1008100010922401109223011092260110922501BA
:100820001092200110921F0110921C0110921B01C6
:1008300010921E0110921D0189819A81AB81BC81A9
:100840008C329140A105B10530F00E946E011982F1
:100850001A821B821C828D819E81AF81B885883E61
:100860009340A105B10530F00E94C0011D821E8297
:100870001F82188669857A858B859C850E9468050C
:100880007B018C018091170190911801A0911901B1
:10089000B0911A019C01AD01C801B7010E94F60593
:1008A000882334F00E94FB0119861A861B861C8659
:1008B0008D859E85AF85B889892B8A2B8B2B31F04E
:1008C0000E9473021D861E861F86188A89899A894E
:1008D000AB89BC89892B8A2B8B2B31F00E94720348
:1008E000198A1A8A1B8A1C8A0000809112018823A7
:1008F000E1F31092120129813A814B815C818D894B
:100900009E89AF89B88D820F931FA41FB51F89835D
:100910009A83AB83BC832D813E814F8158858D891D
:100920009E89AF89B88D820F931FA41FB51F8D8339
:100930009E83AF83B88729853A854B855C858D89F1
:100940009E89AF89B88D820F931FA41FB51F898719
:100950009A87AB87BC872D853E854F8558898D89C1
:100960009E89AF89B88D820F931FA41FB51F8D87F5
:100970009E87AF87B88B29893A894B895C898D8995
:100980009E89AF89B88D820F931FA41FB51F898BD5
:100990009A8BAB8BBC8B50CF5058BB27AA270E9499
:1009A000E4040C94BC050E94AE0538F00E94B50525
:1009B00020F039F49F3F19F426F40C94AB050EF4A3
:1009C000E095E7FB0C94A505E92F0E94CD0558F3AF
:1009D000BA17620773078407950720F079F4A6F524
:1009E0000C94EF050EF4E0950B2EBA2FA02D0B0101
:1009F000B90190010C01CA01A0011124FF27591B64
:100A000099F0593F50F4503E68F11A16F040A22F69
:100A1000232F342F4427585FF3CF469537952795DA
:100A2000A795F0405395C9F77EF41F16BA0B620BD9
:100A3000730B840BBAF09150A1F0FF0FBB1F661F20
:100A4000771F881FC2F70EC0BA0F621F731F841F63
:100A500048F4879577956795B795F7959E3F08F089
:100A6000B0CF9395880F08F09927EE0F979587954B
:100A700008950E94D50588F09F5798F0B92F9927BF
:100A8000B751B0F0E1F0660F771F881F991F1AF079
:100A9000BA95C9F714C0B13091F00E94EF05B1E0EA
:100AA00008950C94EF05672F782F8827B85F39F0E9
:100AB000B93FCCF3869577956795B395D9F73EF412
:100AC00090958095709561957F4F8F4F9F4F0895BA
:100AD000E89409C097FB3EF49095809570956195D8
:100AE0007F4F8F4F9F4F9923A9F0F92F96E9BB278E
:100AF0009395F695879577956795B795F111F8CF0A
:100B0000FAF4BB0F11F460FF1BC06F5F7F4F8F4F74
:100B10009F4F16C0882311F096E911C0772321F06A
:100B20009EE8872F762F05C0662371F096E8862F02
:100B300070E060E02AF09A95660F771F881FDAF759
:100B4000880F9695879597F9089597F99F6780E89C
:100B500070E060E008959FEF80EC089500240A940F
:100B60001616170618060906089500240A94121688
:100B70001306140605060895092E0394000C11F4BB
:100B8000882352F0BB0F40F4BF2B11F460FF04C068
:100B90006F5F7F4F8F4F9F4F089557FD9058440FC1
:100BA000551F59F05F3F71F04795880F97FB991FCC
:100BB00061F09F3F79F08795089512161306140689
:100BC000551FF2CF4695F1DF08C016161706180616
:100BD000991FF1CF86957105610508940895E894F1
:100BE000BB2766277727CB0197F908950E94FB055D
:100BF00008F48FEF0895990F0008550FAA0BE0E84D
:100C0000FEEF16161706E807F907C0F012161306CE
:100C1000E407F50798F0621B730B840B950B39F40E
:100C20000A2661F0232B242B252B21F408950A2674
:100C300009F4A140A6958FEF811D811D0895F894B8
:020C4000FFCFE4
:100C42000100000000000002000000004501000059
:020C52000000A0
:00000001FF
