:100000000C9446000C9465000C9465000C946500FB
:100010000C9465000C9465000C9465000C946500CC
:100020000C9465000C9465000C9465000C946500BC
:100030000C9465000C94E3000C9465000C9465002E
:100040000C9465000C9465000C9465000C9465009C
:100050000C9465000C9465000C9465000C9465008C
:100060000C9465000C9465000C9465000C9465007C
:100070000C9465000C9465000C9465000C9465006C
:100080000C9465000C9465000C94650011241FBE4F
:10009000CFEFD0E4DEBFCDBF11E0A0E0B1E0E4ECF3
:1000A000F7E000E00BBF02C007900D92A631B10748
:1000B000D9F721E0A6E1B1E001C01D92A432B20758
:1000C000E1F70E94A4010C94E0030C940000CF938C
:1000D000DF9300D000D0CDB7DEB769837A838B83FE
:1000E0009C8389819A81AB81BC818093000190932C
:1000F0000101A0930201B09303018091000190914E
:100100000101A0910201B091030180931701909326
:100110001801A0931901B0931A0100000F900F90DD
:100120000F900F90DF91CF910895CF93DF93CDB7CC
:10013000DEB781E890E02BE0FC01208388E890E0C6
:100140002DE730E0FC01318320838FE690E022E050
:10015000FC01208384E890E0FC01118210828091F0
:10016000000190910101A0910201B09103018093DF
:10017000170190931801A0931901B0931A018FE50C
:1001800090E02FE530E0F90120812068FC01208318
:100190000000DF91CF910895CF93DF93CDB7DEB705
:1001A00081E890E0FC0110820000DF91CF9108957A
:1001B000CF93DF93CDB7DEB781E0809316010000C7
:1001C000DF91CF9108951F920F9200905F000F92E0
:1001D000112400905B000F922F933F934F935F93F6
:1001E0006F937F938F939F93AF93BF93EF93FF93FF
:1001F000CF93DF93CDB7DEB78091170190911801AF
:10020000A0911901B0911A010197A109B109809338
:10021000170190931801A0931901B0931A018091CE
:10022000170190911801A0911901B0911A01892B21
:100230008A2B8B2B91F40E94D80080910001909121
:100240000101A0910201B0910301809317019093E5
:100250001801A0931901B0931A010000DF91CF910A
:10026000FF91EF91BF91AF919F918F917F916F918E
:100270005F914F913F912F910F9000925B000F90F3
:1002800000925F000F901F901895CF93DF9300D0DE
:100290001F92CDB7DEB789837B836A8389818A30D9
:1002A00031F48A819B81BC018DE00E94450180EC84
:1002B00090E0FC018081882F90E080729927892B43
:1002C000B1F386EC90E02981FC01208380E090E08E
:1002D0000F900F900F90DF91CF910895CF93DF9300
:1002E000CDB7DEB78AE790E02AE730E0F901208158
:1002F000206EFC0120830000DF91CF910895CF9301
:10030000DF931F92CDB7DEB789838CE790E0298118
:10031000283028F02CE730E0F901208101C0298144
:10032000FC01208310921B0106C0000080911B017C
:100330008F5F80931B0180911B018F30B0F3000011
:100340000F90DF91CF910895CF93DF931F92CDB798
:10035000DEB784E290E02FEFFC01208385E290E09D
:10036000FC01108287E290E02FEFFC01208388E2FD
:1003700090E0FC0110828AE290E02FEFFC012083E4
:100380008BE290E0FC01108284E189838981882FCF
:1003900090E0A0E0B0E0BC01CD010E9467000E94A7
:1003A000950010921F0110921E0181E090E0909341
:1003B00023018093220110922101109220010E94BA
:1003C0006E010E94EF010E94EB020E9430020000C9
:1003D000809116018823E1F310921601F2CFCF939A
:1003E000DF93CDB7DEB780911E0190911F0100977A
:1003F00019F0019741F00EC081E090E090931F0149
:1004000080931E010BC081E090E090931F018093C8
:100410001E0104C010921F0110921E0180911E0146
:1004200090911F01009719F0019741F015C080E8E5
:100430008093130181E0809312010EC088E290E066
:1004400020911301FC0120838BE290E020911201A6
:100450002095FC01208300000000DF91CF910895DA
:10046000CF93DF93CDB7DEB7809122019091230126
:100470008130910519F0029741F00EC082E090E0C2
:1004800090932301809322010DC081E090E090932E
:1004900023018093220106C081E090E09093230124
:1004A0008093220180912201909123018130910556
:1004B00021F0029709F445C08AC080E00E947F01C4
:1004C00088E790E0FC01808191818E309240C0F0FD
:1004D00090911C0180911401981760F08091130194
:1004E000823028F080911301869580931301109239
:1004F0001C016AC080911C018F5F80931C0164C045
:1005000088E790E0FC0180819181893A914008F070
:100510005BC090911C0180911401981760F080914C
:10052000130188232CF080911301880F809313010D
:1005300010921C0149C080911C018F5F80931C01A7
:1005400043C081E00E947F0188E790E0FC01808148
:1005500091818E309240C0F090911D0180911501E3
:10056000981760F080911201823028F0809112017A
:1005700086958093120110921D0128C080911D0163
:100580008F5F80931D0122C088E790E0FC0180818D
:100590009181893A9140D0F490911D01809115018B
:1005A000981760F080911201803128F48091120137
:1005B000880F8093120110921D0108C080911D01C7
:1005C0008F5F80931D0102C0000001C00000000089
:1005D000DF91CF910895CF93DF93CDB7DEB78091B0
:1005E000200190912101009719F0019741F00CC072
:1005F00081E090E0909321018093200109C0109246
:1006000021011092200104C01092210110922001BA
:100610008091200190912101009721F0019709F428
:1006200066C0C9C080E00E947F0188E790E0FC01BD
:1006300080819181893E934020F082E08093140173
:10064000BBC088E790E0FC018081918181329340BA
:1006500020F085E080931401AFC088E790E0FC01B2
:10066000808191818935924020F08AE08093140145
:10067000A3C088E790E0FC01808191818E30924098
:1006800020F084E18093140197C088E790E0FC019A
:1006900080819181C29720F482E0809314018CC004
:1006A00088E790E0FC01808191818A3F910520F4E8
:1006B00085E08093140180C088E790E0FC01808190
:1006C00091818E35914020F48AE08093140174C0AA
:1006D00088E790E0FC0180819181893A914020F483
:1006E00084E18093140168C01092140165C081E018
:1006F0000E947F0188E790E0FC0180819181893E22
:10070000934020F082E08093150155C088E790E087
:10071000FC01808191818132934020F085E08093BB
:10072000150149C088E790E0FC01808191818935FD
:10073000924020F08AE0809315013DC088E790E068
:10074000FC01808191818E30924020F084E1809381
:10075000150131C088E790E0FC0180819181C2974A
:1007600020F482E08093150126C088E790E0FC0128
:10077000808191818A3F910520F485E08093150165
:100780001AC088E790E0FC01808191818E3591400C
:1007900020F48AE0809315010EC088E790E0FC0108
:1007A00080819181893A914020F484E18093150100
:1007B00002C01092150100000000DF91CF91089552
:0407C000F894FFCFDB
:1007C40001000000000000020000000045010000DC
:0607D4000000018002029A
:00000001FF
