:100000000C9446000C9465000C9465000C946500FB
:100010000C9465000C9465000C9465000C946500CC
:100020000C9465000C9465000C9465000C946500BC
:100030000C9465000C94E3000C9465000C9465002E
:100040000C9465000C9465000C9465000C9465009C
:100050000C9465000C9465000C9465000C9465008C
:100060000C9465000C9465000C9465000C9465007C
:100070000C9465000C9465000C9465000C9465006C
:100080000C9465000C9465000C94650011241FBE4F
:10009000CFEFD0E4DEBFCDBF11E0A0E0B1E0EAE4F5
:1000A000FAE000E00BBF02C007900D92AA31B10741
:1000B000D9F721E0AAE1B1E001C01D92A334B20753
:1000C000E1F70E94BB010C9423050C940000CF9330
:1000D000DF9300D000D0CDB7DEB769837A838B83FE
:1000E0009C8389819A81AB81BC818093000190932C
:1000F0000101A0930201B09303018091000190914E
:100100000101A0910201B091030180931B01909322
:100110001C01A0931D01B0931E0100000F900F90D1
:100120000F900F90DF91CF910895CF93DF93CDB7CC
:10013000DEB781E890E02BE0FC01208388E890E0C6
:100140002DE730E0FC01318320838FE690E022E050
:10015000FC01208384E890E0FC01118210828091F0
:10016000000190910101A0910201B09103018093DF
:100170001B0190931C01A0931D01B0931E018FE5FC
:1001800090E02FE530E0F90120812068FC01208318
:100190000000DF91CF910895CF93DF93CDB7DEB705
:1001A00081E890E0FC0110820000DF91CF9108957A
:1001B000CF93DF93CDB7DEB781E080931A010000C3
:1001C000DF91CF9108951F920F9200905F000F92E0
:1001D000112400905B000F922F933F934F935F93F6
:1001E0006F937F938F939F93AF93BF93EF93FF93FF
:1001F000CF93DF93CDB7DEB780911B0190911C01A7
:10020000A0911D01B0911E010197A109B109809330
:100210001B0190931C01A0931D01B0931E018091BE
:100220001B0190911C01A0911D01B0911E01892B11
:100230008A2B8B2B91F40E94D80080910001909121
:100240000101A0910201B091030180931B019093E1
:100250001C01A0931D01B0931E010000DF91CF91FE
:10026000FF91EF91BF91AF919F918F917F916F918E
:100270005F914F913F912F910F9000925B000F90F3
:1002800000925F000F901F901895CF93DF9300D0DE
:100290001F92CDB7DEB789837B836A8389818A30D9
:1002A00031F48A819B81BC018DE00E94450180EC84
:1002B00090E0FC018081882F90E080729927892B43
:1002C000B1F386EC90E02981FC01208380E090E08E
:1002D0000F900F900F90DF91CF910895CF93DF9300
:1002E000CDB7DEB72C970FB6F894DEBF0FBECDBFEB
:1002F0006D837E838F83988729873A874B875C87B6
:100300008D819E81AF81B88529853A854B855C8535
:10031000BC01CD010E940105DC01CB0189839A83D8
:10032000AB83BC8389819A81AB81BC81892B8A2B69
:100330008B2B29F489859A85AB85BC8511C089856D
:100340009A85AB85BC858D839E83AF83B887898171
:100350009A81AB81BC8189879A87AB87BC87D0CFD4
:10036000BC01CD012C960FB6F894DEBF0FBECDBFF9
:10037000DF91CF9108950F931F93CF93DF93CDB764
:10038000DEB72E970FB6F894DEBF0FBECDBF81E269
:1003900090E0FC01108282E290E02FEFFC012083CC
:1003A00084E290E02FEFFC01208385E290E0FC01E5
:1003B000108287E290E02FEFFC01208388E290E03A
:1003C000FC0110828AE290E02FEFFC0120838BE297
:1003D00090E0FC0110828FE191E09C878B878AE29C
:1003E00091E09E878D8782E090E098878F838FEFE2
:1003F000898789858093350186E990E0A0E0B0E0A7
:100400008093360190933701A0933801B09339015E
:100410008091360190913701A0913801B091390156
:1004200080933A0190933B01A0933C01B0933D012E
:1004300083E693E090933F0180933E01898580930A
:100440002A0181E090E0A0E0B0E080932B0190933E
:100450002C01A0932D01B0932E0180912B0190913E
:100460002C01A0912D01B0912E0180932F0190932A
:100470003001A0933101B093320180EB93E090936F
:10048000340180933301898580931F0184E690E0D5
:10049000A0E0B0E08093200190932101A09322017D
:1004A000B09323018091200190912101A09122011C
:1004B000B09123018093240190932501A0932601FC
:1004C000B093270184E094E0909329018093280160
:1004D0008B859C85FC0181819281A381B4818B8372
:1004E0009C83AD83BE831A82198225C089819A813B
:1004F000880F991F9E012F5F3F4F820F931F0A960F
:10050000FC0180819181FC012181328143815481F0
:100510008B819C81AD81BE81BC01CD010E946E01A9
:10052000DC01CB018B839C83AD83BE8389819A815F
:1005300001969A83898329813A818F81988528172A
:100540003907A0F28B818A878A85882F90E0A0E006
:10055000B0E0BC01CD010E9467000E9495001A82A4
:100560001982A1C089819A81880F991F9E012F5FEE
:100570003F4F820F931F0A96FC0180819181FC01FD
:10058000258136814781508589819A81880F991FFD
:10059000BE016F5F7F4F860F971F0A96FC01808117
:1005A0009181FC0181819281A381B481281739074F
:1005B0004A075B0709F045C089819A81880F991F16
:1005C0009E012F5F3F4F820F931F0A96FC0100810F
:1005D000118189819A81880F991F9E012F5F3F4F5A
:1005E000820F931F0A96FC0180819181FC01218575
:1005F000328589819A81880F991FAE014F5F5F4FC5
:10060000840F951F0A96FC0180819181FC018081F5
:10061000082E000C990BF9010995F8018083898156
:100620009A81880F991F9E012F5F3F4F820F931F62
:100630000A96FC0180819181FC0115821682178245
:10064000108689819A81880F991F9E012F5F3F4FE5
:10065000820F931F0A96FC016081718189819A81C2
:10066000880F991F9E012F5F3F4F820F931F0A969D
:10067000FC0180819181FC01258136814781508573
:100680008A85882F90E0A0E0B0E0820F931FA41F1E
:10069000B51FFB0185839683A783B08789819A81E3
:1006A00001969A83898329813A818F8198852817B9
:1006B000390708F457CF000080911A018823E1F32D
:1006C00010921A014CCFCF93DF9300D0CDB7DEB795
:1006D0009A83898389819A81892B19F01A821982D8
:1006E00001C0000089819A81892B09F026C0809180
:1006F00018018F3E59F480911901813039F480E856
:10070000809319018EEF8093180116C08091190112
:10071000813069F480E88093190180911801882F55
:1007200090E0880F991F81608093180105C0809127
:100730001901869580931901000088E290E02091CC
:100740001901FC0120838BE290E020911801FC014B
:10075000208389819A810F900F90DF91CF91089526
:10076000CF93DF9300D0CDB7DEB79A838983898199
:100770009A81009719F0019731F00AC081E090E06A
:100780009A83898307C081E090E09A83898302C0BD
:100790001A82198289819A81009719F0019741F094
:1007A0002CC082E08093410181E08093420125C00A
:1007B00080914001833010F01092400188E290E077
:1007C00020914001222F30E02B5E3E4FF901208125
:1007D000FC0120838BE290E020914001222F30E049
:1007E0002E5E3E4FF90120812095FC0120838091EF
:1007F00040018F5F80934001000089819A810F90B2
:100800000F90DF91CF910895CF93DF93CDB7DEB7EF
:1008100027970FB6F894DEBF0FBECDBF9F838E83A0
:1008200080E290E0FC018081882F90E08170992720
:1008300021E0892B09F020E02A8380E290E0FC018E
:100840008081809582708B8380E290E0FC018081C2
:10085000809584708C8380E290E0FC01808180959B
:1008600088708D838E819F81009721F0019709F414
:10087000A4C0B7C08A81882331F181E090E09F83D2
:100880008E8380914201882309F4AEC0198212C080
:100890008981882F90E02981222F30E02E5E3E4F03
:1008A000F901208126958E5E9E4FFC01208389816F
:1008B0008F5F89838981833058F380914201815011
:1008C0008093420191C08B81882331F181E090E0D7
:1008D0009F838E8380914201823008F085C0198207
:1008E00012C08981882F90E02981222F30E02E5E6E
:1008F0003E4FF9012081220F8E5E9E4FFC01208326
:1009000089818F5F89838981833058F38091420187
:100910008F5F8093420168C08C81882331F181E030
:1009200090E09F838E8380914101882309F45CC00D
:10093000198212C08981882F90E02981222F30E00E
:100940002B5E3E4FF901208126958B5E9E4FFC0168
:10095000208389818F5F89838981833058F38091D7
:1009600041018150809341013FC08D818823E1F195
:1009700081E090E09F838E83809141018430A0F5D7
:10098000198212C08981882F90E02981222F30E0BE
:100990002B5E3E4FF9012081220F8B5E9E4FFC01A2
:1009A000208389818F5F89838981833058F3809187
:1009B00041018F5F8093410117C08A81882349F4E8
:1009C0008B81882331F48C81882319F48D818823CD
:1009D00029F081E090E09F838E8307C01F821E82F2
:1009E00004C01F821E8201C0000000008E819F8112
:1009F00027960FB6F894DEBF0FBECDBFDF91CF9123
:100A00000895A1E21A2EAA1BBB1BFD010DC0AA1F4F
:100A1000BB1FEE1FFF1FA217B307E407F50720F067
:100A2000A21BB30BE40BF50B661F771F881F991FE2
:100A30001A9469F760957095809590959B01AC012B
:0A0A4000BD01CF010895F894FFCF27
:100A4A000100000000000002000000004501000053
:0A0A5A0000000204083C243CFE806A
:00000001FF
