:100000000C9446000C9465000C9465000C946500FB
:100010000C9465000C9465000C9465000C946500CC
:100020000C9465000C9465000C9465000C946500BC
:100030000C9465000C94E3000C9465000C9465002E
:100040000C9465000C9465000C9465000C9465009C
:100050000C9465000C9465000C9465000C9465008C
:100060000C9465000C9465000C9465000C9465007C
:100070000C9465000C9465000C9465000C9465006C
:100080000C9465000C9465000C94650011241FBE4F
:10009000CFEFD0E4DEBFCDBF11E0A0E0B1E0E2EBF6
:1000A000F8E000E00BBF02C007900D92A831B10745
:1000B000D9F721E0A8E1B1E001C01D92A035B20757
:1000C000E1F70E946E010C9457040C940000CF934A
:1000D000DF9300D000D0CDB7DEB769837A838B83FE
:1000E0009C8389819A81AB81BC818093000190932C
:1000F0000101A0930201B09303018091000190914E
:100100000101A0910201B091030180931901909324
:100110001A01A0931B01B0931C0100000F900F90D7
:100120000F900F90DF91CF910895CF93DF93CDB7CC
:10013000DEB781E890E02BE0FC01208388E890E0C6
:100140002DE730E0FC01318320838FE690E022E050
:10015000FC01208384E890E0FC01118210828091F0
:10016000000190910101A0910201B09103018093DF
:10017000190190931A01A0931B01B0931C018FE504
:1001800090E02FE530E0F90120812068FC01208318
:100190000000DF91CF910895CF93DF93CDB7DEB705
:1001A00081E890E0FC0110820000DF91CF9108957A
:1001B000CF93DF93CDB7DEB781E0809318010000C5
:1001C000DF91CF9108951F920F9200905F000F92E0
:1001D000112400905B000F922F933F934F935F93F6
:1001E0006F937F938F939F93AF93BF93EF93FF93FF
:1001F000CF93DF93CDB7DEB78091190190911A01AB
:10020000A0911B01B0911C010197A109B109809334
:10021000190190931A01A0931B01B0931C018091C6
:10022000190190911A01A0911B01B0911C01892B19
:100230008A2B8B2B91F40E94D80080910001909121
:100240000101A0910201B0910301809319019093E3
:100250001A01A0931B01B0931C010000DF91CF9104
:10026000FF91EF91BF91AF919F918F917F916F918E
:100270005F914F913F912F910F9000925B000F90F3
:1002800000925F000F901F901895CF93DF9300D0DE
:100290001F92CDB7DEB789837B836A8389818A30D9
:1002A00031F48A819B81BC018DE00E94450180EC84
:1002B00090E0FC018081882F90E080729927892B43
:1002C000B1F386EC90E02981FC01208380E090E08E
:1002D0000F900F900F90DF91CF910895CF93DF9300
:1002E000CDB7DEB760970FB6F894DEBF0FBECDBFB7
:1002F00084E290E02FEFFC01208385E290E0FC0196
:10030000108287E290E02FEFFC01208388E290E0EA
:10031000FC0110828AE290E02FEFFC0120838BE247
:1003200090E0FC0110820E943B0386E0E2E1F1E0F4
:10033000DE011B9601900D928A95E1F783E090E033
:1003400098878F838FEF898789858093290182E33E
:1003500090E0A0E0B0E080932A0190932B01A0935D
:100360002C01B0932D0180912A0190912B01A09135
:100370002C01B0912D0180932E0190932F01A09319
:100380003001B09331018AE692E09093330180937B
:10039000320189858093340184E690E0A0E0B0E0EA
:1003A0008093350190933601A0933701B0933801C3
:1003B0008091350190913601A0913701B0913801BB
:1003C0008093390190933A01A0933B01B0933C0193
:1003D00082EF92E090933E0180933D018985809366
:1003E0003F0181E090E0A0E0B0E080934001909375
:1003F0004101A0934201B09343018091400190914B
:100400004101A0914201B091430180934401909336
:100410004501A0934601B093470180E093E090939B
:100420004901809348018B859C85FC0181819281E3
:10043000A381B4818B839C83AD83BE831A8219828E
:1004400025C089819A81880F991F9E012F5F3F4F98
:10045000820F931F0A96FC0180819181FC0121810A
:100460003281438154818B819C81AD81BE81BC01ED
:10047000CD010E94BA03DC01CB018B839C83AD8349
:10048000BE8389819A8101969A83898329813A81E1
:100490008F81988528173907A0F28B818A878A85F2
:1004A000882F90E0A0E0B0E0BC01CD010E94670081
:1004B0000E9495008FE00E9471038BE290E02DEF87
:1004C000FC0120830000809118018823E1F3109241
:1004D0001801F0CFCF93DF93CDB7DEB72A970FB6D1
:1004E000F894DEBF0FBECDBF9A87898780E290E087
:1004F000FC01808180958470898380E290E0FC011A
:100500008081809588708A8389859A85009719F003
:10051000019749F022C081E090E09A87898780E0C6
:100520000E944C031CC08981882319F48A81882386
:1005300071F080911E01882329F083E090E09A8772
:1005400089870AC082E090E09A87898705C081E0A8
:1005500090E09A87898703C002C01A861986898528
:100560009A85009799F1019709F031C088E790E0EA
:10057000FC01808191818E30924018F010921E0112
:100580000BC088E790E0FC0180819181893A91401D
:1005900018F481E080931E0182E08B8384E08C83D9
:1005A0001D8288E08E838AE08F83188680911E01E9
:1005B000882331F08091260180668093260107C050
:1005C0008091270180668093270101C00000898502
:1005D0009A852A960FB6F894DEBF0FBECDBFDF9185
:1005E000CF910895CF93DF9300D0CDB7DEB79A8334
:1005F000898389819A810F900F90DF91CF9108951F
:10060000CF93DF9300D0CDB7DEB79A8389838981FA
:100610009A81009719F0019729F008C081E090E0D5
:100620009A83898381E090E09A8389831A82198270
:1006300089819A810097B9F0019709F015C08091DE
:100640004A01833010F010924A018FE00E9471033A
:100650008BE290E02DEFFC01208380914A018F5FB7
:1006600080934A0101C0000089819A810F900F9008
:10067000DF91CF910895CF93DF93CDB7DEB78AE7AF
:1006800090E02AE730E0F9012081206EFC01208310
:100690000000DF91CF910895CF93DF931F92CDB7E4
:1006A000DEB789838CE790E02981283028F02CE799
:1006B00030E0F901208101C02981FC0120831092E2
:1006C0004B0106C0000080914B018F5F80934B016E
:1006D00080914B018F30B0F300000F90DF91CF91EC
:1006E0000895CF93DF9300D01F92CDB7DEB78B83F1
:1006F0001A82198227C088E290E028E0FC0120835A
:1007000088E290E028E230E0F9012081422F2B813D
:10071000222F30E0098002C0359527950A94E2F730
:100720002170242BFC01208388E290E028E230E055
:10073000F90120812260FC01208389819A81019640
:100740009A83898389819A810897ACF288E290E044
:1007500028E230E0F90120812460FC01208388E256
:1007600090E0FC01108200000F900F900F90DF913D
:10077000CF910895CF93DF93CDB7DEB72C970FB607
:10078000F894DEBF0FBECDBF6D837E838F839887C5
:1007900029873A874B875C878D819E81AF81B88599
:1007A00029853A854B855C85BC01CD010E943504C5
:1007B000DC01CB0189839A83AB83BC8389819A81D5
:1007C000AB81BC81892B8A2B8B2B29F489859A8557
:1007D000AB85BC8511C089859A85AB85BC858D8329
:1007E0009E83AF83B88789819A81AB81BC818987D9
:1007F0009A87AB87BC87D0CFBC01CD012C960FB6B2
:10080000F894DEBF0FBECDBFDF91CF910895CF9397
:10081000DF9300D000D01F92CDB7DEB79B838A83D1
:100820007D836C83198215C08981882F90E02A818D
:100830003B81820F931F2981222F30E04C815D8103
:10084000240F351FF9012081FC01208389818F5FEE
:1008500089838981833040F300000F900F900F90BF
:100860000F900F90DF91CF910895A1E21A2EAA1B4D
:10087000BB1BFD010DC0AA1FBB1FEE1FFF1FA21750
:10088000B307E407F50720F0A21BB30BE40BF50B4D
:10089000661F771F881F991F1A9469F760957095D6
:1008A000809590959B01AC01BD01CF010895F8940E
:0208B000FFCF78
:1008B20001000000000000020000000045010000ED
:0808C2000000290134013F018F
:00000001FF
