:100000000C9446000C9465000C9465000C946500FB
:100010000C9465000C9465000C9465000C946500CC
:100020000C9465000C9465000C9465000C946500BC
:100030000C9465000C94E3000C9465000C9465002E
:100040000C9465000C9465000C9465000C9465009C
:100050000C9465000C9465000C9465000C9465008C
:100060000C9465000C9465000C9465000C9465007C
:100070000C9465000C9465000C9465000C9465006C
:100080000C9465000C9465000C94650011241FBE4F
:10009000CFEFD0E4DEBFCDBF11E0A0E0B1E0EEE1F4
:1000A000FAE000E00BBF02C007900D92A231B10749
:1000B000D9F721E0A2E1B1E001C01D92AD31B20754
:1000C000E1F70E944E030C940D050C940000CF93B1
:1000D000DF9300D000D0CDB7DEB769837A838B83FE
:1000E0009C8389819A81AB81BC818093000190932C
:1000F0000101A0930201B09303018091000190914E
:100100000101A0910201B09103018093130190932A
:100110001401A0931501B093160100000F900F90E9
:100120000F900F90DF91CF910895CF93DF93CDB7CC
:10013000DEB781E890E02BE0FC01208388E890E0C6
:100140002DE730E0FC01318320838FE690E022E050
:10015000FC01208384E890E0FC01118210828091F0
:10016000000190910101A0910201B09103018093DF
:10017000130190931401A0931501B09316018FE51C
:1001800090E02FE530E0F90120812068FC01208318
:100190000000DF91CF910895CF93DF93CDB7DEB705
:1001A00081E890E0FC0110820000DF91CF9108957A
:1001B000CF93DF93CDB7DEB781E0809312010000CB
:1001C000DF91CF9108951F920F9200905F000F92E0
:1001D000112400905B000F922F933F934F935F93F6
:1001E0006F937F938F939F93AF93BF93EF93FF93FF
:1001F000CF93DF93CDB7DEB78091130190911401B7
:10020000A0911501B09116010197A109B109809340
:10021000130190931401A0931501B09316018091DE
:10022000130190911401A0911501B0911601892B31
:100230008A2B8B2B91F40E94D80080910001909121
:100240000101A0910201B0910301809313019093E9
:100250001401A0931501B09316010000DF91CF9116
:10026000FF91EF91BF91AF919F918F917F916F918E
:100270005F914F913F912F910F9000925B000F90F3
:1002800000925F000F901F901895CF93DF9300D0DE
:100290001F92CDB7DEB789837B836A8389818A30D9
:1002A00031F48A819B81BC018DE00E94450180EC84
:1002B00090E0FC018081882F90E080729927892B43
:1002C000B1F386EC90E02981FC01208380E090E08E
:1002D0000F900F900F90DF91CF9108950F931F9380
:1002E000CF93DF9300D000D0CDB7DEB769837A8398
:1002F0008B839C838091170190911801A091190123
:10030000B0911A019C01AD0169817A818B819C8138
:100310000E947903882309F477C020E030E0A90126
:1003200069817A818B819C810E947903882351F4B1
:1003300081E990E021E930E0F90120812870FC0199
:10034000208309C081E990E021E930E0F9012081B2
:100350002360FC01208328E539E344E75FE36981FA
:100360007A818B819C810E947903882344F488E9F7
:1003700090E02FEF3FEFFC013183208334C020E079
:1003800034E244EF56E469817A818B819C810E943A
:100390009B04181634F488E990E0FC011182108265
:1003A00022C008E910E020E030E040E053E4698139
:1003B0007A818B819C810E94A004DC01CB019C018D
:1003C000AD0160E074E284EF9AE40E947E03DC01F8
:1003D000CB01BC01CD010E94F003DC01CB010197F0
:1003E000F8019183808384E990E0FC0111821082FE
:1003F00089819A81AB81BC81809317019093180108
:10040000A0931901B0931A0100000F900F900F9064
:100410000F90DF91CF911F910F910895CF93DF93AC
:10042000CDB7DEB780E990E020E4FC01208381E9CC
:1004300090E02BE0FC01208360E070E0CB010E94A3
:100440006E010000DF91CF910895CF93DF93CDB778
:10045000DEB780E990E0FC01108281E990E0FC01C8
:1004600010820000DF91CF910895CF93DF93CDB735
:10047000DEB780911B0190911C018230910509F437
:100480008EC08330910528F4009759F0019781F0D0
:10049000CEC08330910509F49AC0049709F4AFC027
:1004A000C6C081E090E090931C0180931B01C4C002
:1004B00080E290E0FC018081882F90E08170992794
:1004C000892BD9F480E290E0FC018081882F90E0B4
:1004D00082709927892B89F080E290E0FC0180816D
:1004E000882F90E084709927892B39F082E090E082
:1004F00090931C0180931B0151C080E290E0FC01AD
:100500008081882F90E081709927892BD9F080E233
:1005100090E0FC018081882F90E082709927892BE0
:1005200089F480E290E0FC018081882F90E0847063
:100530009927892B39F083E090E090931C018093F8
:100540001B012CC080E290E0FC018081882F90E0AC
:1005500081709927892BD9F080E290E0FC0180819D
:10056000882F90E082709927892B89F080E290E0B3
:10057000FC018081882F90E084709927892B39F4C1
:1005800084E090E090931C0180931B0107C081E000
:1005900090E090931C0180931B014EC04DC080E2FF
:1005A00090E0FC018081882F90E081709927892B51
:1005B00039F081E090E090931C0180931B013CC0D6
:1005C00082E090E090931C0180931B0135C080E293
:1005D00090E0FC018081882F90E082709927892B20
:1005E00039F081E090E090931C0180931B0124C0BE
:1005F00083E090E090931C0180931B011DC080E27A
:1006000090E0FC018081882F90E084709927892BED
:1006100039F081E090E090931C0180931B010CC0A5
:1006200084E090E090931C0180931B0105C0109220
:100630001C0110921B01000080911B0190911C0174
:100640008230910591F08330910518F4019739F0CB
:1006500021C08330910581F00497A9F01BC060E0B0
:1006600070E0CB010E946E0115C064EA70ED82E873
:1006700093E40E946E010EC06BE774ED82E993E48F
:100680000E946E0107C064EA70ED84EA93E40E9460
:100690006E0100000000DF91CF910895CF93DF93AA
:1006A000CDB7DEB781E290E0FC01108282E290E0FB
:1006B0002FEFFC01208384E290E02FEFFC012083E8
:1006C00085E290E020E4FC01208364E670E080E0B5
:1006D00090E00E9467000E9495000E940E020E9416
:1006E00035020000809112018823E1F3109212017B
:1006F000F6CF0E94260408F481E008950E94920338
:100700000C9461040E945A0458F00E94530440F073
:1007100029F45F3F29F00C944A0451110C9495047C
:100720000C9450040E94720468F39923B1F355238A
:1007300091F3951B550BBB27AA27621773078407F4
:1007400038F09F5F5F4F220F331F441FAA1FA9F38A
:1007500035D00E2E3AF0E0E832D091505040E69578
:10076000001CCAF72BD0FE2F29D0660F771F881FD9
:10077000BB1F261737074807AB07B0E809F0BB0BCC
:10078000802DBF01FF2793585F4F3AF09E3F5105E0
:1007900078F00C944A040C9495045F3FE4F3983E7F
:1007A000D4F3869577956795B795F7959F5FC9F7C9
:1007B000880F911D9695879597F90895E1E0660F4A
:1007C000771F881FBB1F621773078407BA0720F0C3
:1007D000621B730B840BBA0BEE1F88F7E09508952C
:1007E0000E94F7036894B1110C94950408950E9437
:1007F0007A0488F09F5798F0B92F9927B751B0F035
:10080000E1F0660F771F881F991F1AF0BA95C9F794
:1008100014C0B13091F00E949404B1E008950C949A
:100820009404672F782F8827B85F39F0B93FCCF34D
:10083000869577956795B395D9F73EF49095809511
:10084000709561957F4F8F4F9F4F0895990F0008C6
:10085000550FAA0BE0E8FEEF16161706E807F90792
:10086000C0F012161306E407F50798F0621B730B2D
:10087000840B950B39F40A2661F0232B242B252BAE
:1008800021F408950A2609F4A140A6958FEF811D51
:10089000811D089597F99F6780E870E060E00895F2
:1008A0009FEF80EC089500240A9416161706180688
:1008B0000906089500240A94121613061406050664
:1008C0000895092E0394000C11F4882352F0BB0FF5
:1008D00040F4BF2B11F460FF04C06F5F7F4F8F4F58
:1008E0009F4F089557FD9058440F551F59F05F3F93
:1008F00071F04795880F97FB991F61F09F3F79F042
:1009000087950895121613061406551FF2CF4695C3
:10091000F1DF08C0161617061806991FF1CF869545
:100920007105610508940895E894BB276627772729
:10093000CB0197F908950E94260408F48FEF0895DB
:100940000E94B3040C9461040E94530438F00E9486
:100950005A0420F0952311F00C944A040C9450048E
:1009600011240C9495040E94720470F3959FC1F3B6
:10097000950F50E0551F629FF001729FBB27F00D4D
:10098000B11D639FAA27F00DB11DAA1F649F6627A2
:10099000B00DA11D661F829F2227B00DA11D621FF1
:1009A000739FB00DA11D621F839FA00D611D221FAB
:1009B000749F3327A00D611D231F849F600D211D8F
:1009C000822F762F6A2F11249F5750409AF0F1F012
:1009D00088234AF0EE0FFF1FBB1F661F771F881F7B
:1009E00091505040A9F79E3F510580F00C944A0465
:1009F0000C9495045F3FE4F3983ED4F38695779585
:100A00006795B795F795E7959F5FC1F7FE2B880F20
:0E0A1000911D9695879597F90895F894FFCF5C
:100A1E00010000000000000200000000450100007F
:020A2E000000C6
:00000001FF
