:100000000C9446000C9465000C9465000C946500FB
:100010000C9465000C9465000C9465000C946500CC
:100020000C9465000C9465000C9465000C946500BC
:100030000C9465000C94E3000C9465000C9465002E
:100040000C9465000C9465000C9465000C9465009C
:100050000C9465000C9465000C9465000C9465008C
:100060000C9465000C9465000C9465000C9465007C
:100070000C9465000C9465000C9465000C9465006C
:100080000C9465000C9465000C94650011241FBE4F
:10009000CFEFD0E4DEBFCDBF11E0A0E0B1E0E4EBF4
:1000A000FBE000E00BBF02C007900D92A631B10744
:1000B000D9F721E0A6E1B1E001C01D92A234B20758
:1000C000E1F70E9400040C94D8050C940000CF9333
:1000D000DF9300D000D0CDB7DEB769837A838B83FE
:1000E0009C8389819A81AB81BC818093000190932C
:1000F0000101A0930201B09303018091000190914E
:100100000101A0910201B091030180931701909326
:100110001801A0931901B0931A0100000F900F90DD
:100120000F900F90DF91CF910895CF93DF93CDB7CC
:10013000DEB781E890E02BE0FC01208388E890E0C6
:100140002DE730E0FC01318320838FE690E022E050
:10015000FC01208384E890E0FC01118210828091F0
:10016000000190910101A0910201B09103018093DF
:10017000170190931801A0931901B0931A018FE50C
:1001800090E02FE530E0F90120812068FC01208318
:100190000000DF91CF910895CF93DF93CDB7DEB705
:1001A00081E890E0FC0110820000DF91CF9108957A
:1001B000CF93DF93CDB7DEB781E0809316010000C7
:1001C000DF91CF9108951F920F9200905F000F92E0
:1001D000112400905B000F922F933F934F935F93F6
:1001E0006F937F938F939F93AF93BF93EF93FF93FF
:1001F000CF93DF93CDB7DEB78091170190911801AF
:10020000A0911901B0911A010197A109B109809338
:10021000170190931801A0931901B0931A018091CE
:10022000170190911801A0911901B0911A01892B21
:100230008A2B8B2B91F40E94D80080910001909121
:100240000101A0910201B0910301809317019093E5
:100250001801A0931901B0931A010000DF91CF910A
:10026000FF91EF91BF91AF919F918F917F916F918E
:100270005F914F913F912F910F9000925B000F90F3
:1002800000925F000F901F901895CF93DF9300D0DE
:100290001F92CDB7DEB789837B836A8389818A30D9
:1002A00031F48A819B81BC018DE00E94450180EC84
:1002B00090E0FC018081882F90E080729927892B43
:1002C000B1F386EC90E02981FC01208380E090E08E
:1002D0000F900F900F90DF91CF910895CF93DF9300
:1002E00000D01F92CDB7DEB78B831A82198227C048
:1002F00088E290E028E0FC01208388E290E028E298
:1003000030E0F9012081422F2B81222F30E009803B
:1003100002C0359527950A94E2F72170242BFC0141
:10032000208388E290E028E230E0F9012081226019
:10033000FC01208389819A8101969A83898389812E
:100340009A810897ACF288E290E028E230E0F90167
:1003500020812460FC01208388E290E0FC0110826F
:1003600000000F900F900F90DF91CF910895CF93E1
:10037000DF9300D01F92CDB7DEB78B831A8219822C
:1003800027C08BE290E028E0FC0120838BE290E024
:100390002BE230E0F9012081422F2B81222F30E027
:1003A000098002C0359527950A94E2F72170242B25
:1003B000FC0120838BE290E02BE230E0F901208108
:1003C0002260FC01208389819A8101969A83898326
:1003D00089819A810897ACF28BE290E02BE230E0C1
:1003E000F90120812460FC0120838BE290E0FC0174
:1003F000108200000F900F900F90DF91CF91089521
:10040000CF93DF93CDB7DEB72C970FB6F894DEBF4E
:100410000FBECDBF6D837E838F83988729873A87F0
:100420004B875C878D819E81AF81B88529853A8510
:100430004B855C85BC01CD010E94B605DC01CB017A
:1004400089839A83AB83BC8389819A81AB81BC8188
:10045000892B8A2B8B2B29F489859A85AB85BC85C2
:1004600011C089859A85AB85BC858D839E83AF83BA
:10047000B88789819A81AB81BC8189879A87AB874C
:10048000BC87D0CFBC01CD012C960FB6F894DEBF4F
:100490000FBECDBFDF91CF910895CF93DF9300D0F2
:1004A00000D01F92CDB7DEB79D838C8380E290E0B1
:1004B000FC018081882F90E08170992721E0892BB1
:1004C00009F020E0298380E290E0FC0180818095A2
:1004D00082708A8380E290E0FC0180818095847044
:1004E0008B838C819D818230910509F459C08330C2
:1004F00091052CF4009779F0019791F0C5C08430F4
:10050000910509F45AC0843091050CF463C0059735
:1005100009F4A7C0B9C081E090E09D838C83BAC084
:1005200089818823B9F082E090E09D838C8380915B
:100530001201909113018130904808F0A8C0809179
:10054000120190911301880F991F909313018093CA
:1005500012019DC08B818823B1F084E090E09D83DF
:100560008C838091120190911301892B09F48FC023
:1005700080911201909113019695879590931301A4
:100580008093120184C08A81882329F083E090E05F
:100590009D838C837CC081E090E09D838C8377C0B9
:1005A0008981882329F481E090E09D838C8372C047
:1005B00082E090E09D838C836DC08B81882329F439
:1005C00081E090E09D838C8365C084E090E09D8312
:1005D0008C8360C08A81882329F481E090E09D8328
:1005E0008C8357C089818823D9F085E090E09D8372
:1005F0008C8380911201909113018130904108F019
:1006000048C08091120190911301880F991F880FA3
:10061000991F880F991F909313018093120139C07D
:100620008B818823C9F085E090E09D838C83809145
:10063000120190911301089760F18091120190913D
:10064000130196958795969587959695879590939E
:100650001301809312011DC083E090E09D838C8381
:1006600018C08981882359F48A81882341F48B81B9
:10067000882329F481E090E09D838C830BC085E082
:1006800090E09D838C8306C01D821C8203C0000005
:1006900001C000008C819D81892B09F007C081E099
:1006A00090E0909313018093120100008091120159
:1006B000909113010E946E0180911201909113019B
:1006C000892F99270E94B7018C819D810F900F90EF
:1006D0000F900F900F90DF91CF910895CF93DF93FC
:1006E00000D0CDB7DEB79A83898389819A8100973C
:1006F00019F0019731F00AC081E090E09A83898374
:1007000007C081E090E09A83898302C01A8219822F
:1007100089819A81009719F0019741F033C080E0F8
:1007200090E890931501809314012CC080911401DE
:10073000909115018115904811F410921B01809140
:10074000140190911501892B19F481E080931B010C
:1007500080911B01882359F080911401909115011B
:100760009695879590931501809314010AC0809106
:10077000140190911501880F991F90931501809392
:100780001401000089819A810F900F90DF91CF9121
:100790000895CF93DF9300D0CDB7DEB79A838983D6
:1007A00089819A81892B19F41A82198202C01A82CE
:1007B000198289819A81892B71F4209112013091DB
:1007C00013018091140190911501822B932B90932A
:1007D0001D0180931C0180911C0190911D010E94BC
:1007E0006E0180911C0190911D01892F99270E9413
:1007F000B70189819A810F900F90DF91CF91089571
:100800000F931F93CF93DF93CDB7DEB72F970FB61C
:10081000F894DEBF0FBECDBF81E290E0FC011082F4
:1008200082E290E02FEFFC01208384E290E02FEF42
:10083000FC01208385E290E0FC01108287E290E0D9
:100840002FEFFC01208388E290E0FC0110828AE215
:1008500090E02FEFFC0120838BE290E0FC011082FE
:100860008EE191E09F878E8781E090E098878F836B
:100870008FEF89878985082E000C990B90931F01B3
:1008800080931E0184E690E0A0E0B0E08093200118
:1008900090932101A0932201B09323018091200124
:1008A00090912101A0912201B09123018093240114
:1008B00090932501A0932601B09327018DE492E047
:1008C00090932901809328018985082E000C990BAB
:1008D00090932B0180932A0184E690E0A0E0B0E0A1
:1008E00080932C0190932D01A0932E01B0932F01A2
:1008F00080912C0190912D01A0912E01B0912F019A
:100900008093300190933101A0933201B093330171
:100910008EE693E090933501809334018985082E0B
:10092000000C990B909337018093360184E690E098
:10093000A0E0B0E08093380190933901A0933A0190
:10094000B0933B018091380190913901A0913A0117
:10095000B0913B0180933C0190933D01A0933E01F7
:10096000B0933F0189EC93E0909341018093400163
:100970008E859F85FC0182819381A481B5818B83C3
:100980009C83AD83BE831A82198225C089819A8196
:10099000880F991F9E012F5F3F4F820F931F0D9667
:1009A000FC0180819181FC01228133814481558148
:1009B0008B819C81AD81BE81BC01CD010E94000272
:1009C000DC01CB018B839C83AD83BE8389819A81BB
:1009D00001969A83898329813A818F819885281786
:1009E0003907A0F28B819C81AD81BE818A879B876C
:1009F000AC87BD878A859B85AC85BD85BC01CD0153
:100A00000E9467000E9495001A8219829FC0898106
:100A10009A81880F991F9E012F5F3F4F820F931F6E
:100A20000D96FC0180819181FC01268137814085F2
:100A3000518589819A81880F991FBE016F5F7F4F11
:100A4000860F971F0D96FC0180819181FC018281A8
:100A50009381A481B581281739074A075B0709F0FC
:100A600044C089819A81880F991F9E012F5F3F4F53
:100A7000820F931F0D96FC010081118189819A815B
:100A8000880F991F9E012F5F3F4F820F931F0D9676
:100A9000FC0180819181FC012285338589819A81C5
:100AA000880F991FAE014F5F5F4F840F951F0D9602
:100AB000FC0180819181FC0180819181F90109957E
:100AC000F8019183808389819A81880F991F9E0103
:100AD0002F5F3F4F820F931F0D96FC018081918104
:100AE000FC01168217821086118689819A81880FEF
:100AF000991F9E012F5F3F4F820F931F0D96FC01A0
:100B00006081718189819A81880F991F9E012F5F71
:100B10003F4F820F931F0D96FC0180819181FC0154
:100B200026813781408551858A859B85AC85BD8529
:100B3000820F931FA41FB51FFB0186839783A08795
:100B4000B18789819A8101969A83898329813A8123
:100B50008F8198852817390708F459CF00008091B4
:100B600016018823E1F3109216014ECFA1E21A2E4E
:100B7000AA1BBB1BFD010DC0AA1FBB1FEE1FFF1F41
:100B8000A217B307E407F50720F0A21BB30BE40B91
:100B9000F50B661F771F881F991F1A9469F76095D8
:100BA0007095809590959B01AC01BD01CF01089592
:040BB000F894FFCFE7
:100BB40001000000000000020000000045010000E8
:060BC400000001000080AA
:00000001FF
