:100000000C9446000C9465000C9465000C946500FB
:100010000C9465000C9465000C9465000C946500CC
:100020000C9465000C9465000C9465000C946500BC
:100030000C9465000C94E3000C9465000C9465002E
:100040000C9465000C9465000C9465000C9465009C
:100050000C9465000C9465000C9465000C9465008C
:100060000C9465000C9465000C9465000C9465007C
:100070000C9465000C9465000C9465000C9465006C
:100080000C9465000C9465000C94650011241FBE4F
:10009000CFEFD0E4DEBFCDBF11E0A0E0B1E0E2EEF3
:1000A000F4E000E00BBF02C007900D92A231B1074F
:1000B000D9F721E0A2E1B1E001C01D92AA31B20757
:1000C000E1F70E944D020C946F020C940000CF9354
:1000D000DF9300D000D0CDB7DEB769837A838B83FE
:1000E0009C8389819A81AB81BC818093000190932C
:1000F0000101A0930201B09303018091000190914E
:100100000101A0910201B09103018093130190932A
:100110001401A0931501B093160100000F900F90E9
:100120000F900F90DF91CF910895CF93DF93CDB7CC
:10013000DEB781E890E02BE0FC01208388E890E0C6
:100140002DE730E0FC01318320838FE690E022E050
:10015000FC01208384E890E0FC01118210828091F0
:10016000000190910101A0910201B09103018093DF
:10017000130190931401A0931501B09316018FE51C
:1001800090E02FE530E0F90120812068FC01208318
:100190000000DF91CF910895CF93DF93CDB7DEB705
:1001A00081E890E0FC0110820000DF91CF9108957A
:1001B000CF93DF93CDB7DEB781E0809312010000CB
:1001C000DF91CF9108951F920F9200905F000F92E0
:1001D000112400905B000F922F933F934F935F93F6
:1001E0006F937F938F939F93AF93BF93EF93FF93FF
:1001F000CF93DF93CDB7DEB78091130190911401B7
:10020000A0911501B09116010197A109B109809340
:10021000130190931401A0931501B09316018091DE
:10022000130190911401A0911501B0911601892B31
:100230008A2B8B2B91F40E94D80080910001909121
:100240000101A0910201B0910301809313019093E9
:100250001401A0931501B09316010000DF91CF9116
:10026000FF91EF91BF91AF919F918F917F916F918E
:100270005F914F913F912F910F9000925B000F90F3
:1002800000925F000F901F901895CF93DF9300D0DE
:100290001F92CDB7DEB789837B836A8389818A30D9
:1002A00031F48A819B81BC018DE00E94450180EC84
:1002B00090E0FC018081882F90E080729927892B43
:1002C000B1F386EC90E02981FC01208380E090E08E
:1002D0000F900F900F90DF91CF910895CF93DF9300
:1002E00000D01F92CDB7DEB78B831A82198227C048
:1002F00088E290E028E0FC01208388E290E028E298
:1003000030E0F9012081422F2B81222F30E009803B
:1003100002C0359527950A94E2F72170242BFC0141
:10032000208388E290E028E230E0F9012081226019
:10033000FC01208389819A8101969A83898389812E
:100340009A810897ACF288E290E028E230E0F90167
:1003500020812460FC01208388E290E0FC0110826F
:1003600000000F900F900F90DF91CF910895CF93E1
:10037000DF9300D0CDB7DEB780E290E0FC01808152
:10038000882F90E08170992721E0892B09F020E0E7
:10039000298380E290E0FC018081809582708A83CD
:1003A000809118019091190181309105A1F181305E
:1003B000910520F0029709F447C05FC08981882326
:1003C00089F081E090E09093190180931801809169
:1003D0001701882309F456C080911701815080933A
:1003E000170150C08A81882389F082E090E09093C1
:1003F000190180931801809117018F3F09F442C0C1
:10040000809117018F5F809317013CC010921901F2
:100410001092180137C08981882329F4109219019C
:100420001092180130C08A81882339F01092190186
:10043000109218011092170126C081E090E090936D
:100440001901809318011FC08A81882329F4109212
:1004500019011092180117C08981882339F0109270
:10046000190110921801109217010DC082E090E05E
:10047000909319018093180106C0109219011092EF
:10048000180101C00000809117010E946E01000058
:100490000F900F90DF91CF910895CF93DF93CDB759
:1004A000DEB781E290E0FC01108282E290E02FEF63
:1004B000FC01208384E290E02FEFFC01208385E2A1
:1004C00090E0FC01108287E290E02FEFFC01208396
:1004D00088E290E0FC0110820E94B701FDCFF89401
:0204E000FFCF4C
:1004E20001000000000000020000000045010000C1
:0204F200000008
:00000001FF
