:100000000C9446000C945D000C945D000C945D0013
:100010000C945D000C945D000C945D000C945D00EC
:100020000C945D000C945D000C945D000C945D00DC
:100030000C945D000C945D000C945D000C945D00CC
:100040000C945D000C945D000C945D000C945D00BC
:100050000C945D000C945D000C945D000C945D00AC
:100060000C945D000C945D000C945D000C945D009C
:100070000C945D000C945D000C945D000C945D008C
:100080000C945D000C945D000C945D0011241FBE67
:10009000CFEFD0E4DEBFCDBF11E0A0E0B1E0E0EEF5
:1000A000F2E000E00BBF02C007900D92AE30B10746
:1000B000D9F70E9499000C946E010C940000CF9324
:1000C000DF9300D01F92CDB7DEB789837B836A832D
:1000D00089818A3031F48A819B81BC018DE00E9444
:1000E0005F0080EC90E0FC018081882F90E08072BE
:1000F0009927892BB1F386EC90E02981FC012083BC
:1001000080E090E00F900F900F90DF91CF910895D5
:10011000CF93DF93CDB7DEB78AE790E02AE730E0F0
:10012000F9012081206EFC0120830000DF91CF9136
:100130000895CF93DF9300D000D0CDB7DEB784E22F
:1001400090E02FEFFC01208385E290E0FC0110821B
:100150008AE290E02FEFFC0120838BE290E0FC012B
:10016000108280EC93E09A83898389819A819695A5
:10017000879596958795969587959C838B830E9406
:10018000880088E790E0FC01208131818B819C818F
:10019000880F991F880F991F880F991F28173907F3
:1001A00030F085E290E02FEFFC012083EACF88E772
:1001B00090E0FC01408151812B813C81C901880F75
:1001C000991F880F991F880F991F821B930B48173F
:1001D000590730F085E290E02FE7FC012083D1CF72
:1001E00088E790E0FC01408151812B813C81C9016D
:1001F000880F991F820F931F880F991F481759075F
:1002000030F085E290E02FE3FC012083BACF88E74D
:1002100090E0FC01408151812B813C81C901880F14
:10022000991F880F991F820F931F4817590730F0A5
:1002300085E290E02FE1FC012083A3CF88E790E0E6
:10024000FC01208131818B819C81880F991F880F4F
:10025000991F2817390730F085E290E02FE0FC0164
:1002600020838FCF88E790E0FC01408151812B8172
:100270003C81C901880F991F820F931F48175907A6
:1002800030F085E290E027E0FC0120837ACF88E718
:1002900090E0FC01208131818B819C81880F991F26
:1002A0002817390730F085E290E023E0FC01208335
:1002B00068CF88E790E0FC01208131818B819C81AF
:1002C0002817390730F085E290E021E0FC01208317
:1002D00058CF85E290E0FC01108253CFF894FFCF15
:0E02E00000000002000000005F0000000000AF
:00000001FF
