:100000000C9438000C9455000C9455000C94550039
:100010000C9455000C9455000C9455000C9455000C
:100020000C9455000C9455000C9455000C945500FC
:100030000C9455000C94D3000C9455000C9455006E
:100040000C9455000C9455000C9455000C945500DC
:100050000C9455000C9455000C9455000C945500CC
:100060000C9455000C9455000C9455000C945500BC
:1000700011241FBECFEFD0E1DEBFCDBF11E0A0E065
:10008000B1E0EEEAF4E102C005900D92A632B107AC
:10009000D9F721E0A6E2B1E001C01D92A537B20771
:1000A000E1F70E9452020C94550A0C940000CF9381
:1000B000DF9300D000D0CDB7DEB769837A838B831E
:1000C0009C8389819A81AB81BC818093000190934C
:1000D0000101A0930201B09303018091000190916E
:1000E0000101A0910201B091030180932701909337
:1000F0002801A0932901B0932A0100000F900F90CE
:100100000F900F90DF91CF910895CF93DF93CDB7EC
:10011000DEB781E890E02BE0FC01208388E890E0E6
:100120002DE730E0FC01318320838FE690E022E070
:10013000FC01208384E890E0FC0111821082809110
:10014000000190910101A0910201B09103018093FF
:10015000270190932801A0932901B0932A018FE5EC
:1001600090E02FE530E0F90120812068FC01208338
:100170000000DF91CF910895CF93DF93CDB7DEB725
:1001800081E890E0FC0110820000DF91CF9108959A
:10019000CF93DF93CDB7DEB781E0809326010000D7
:1001A000DF91CF9108951F920F9200905F000F9200
:1001B00011242F933F934F935F936F937F938F936C
:1001C0009F93AF93BF93EF93FF93CF93DF93CDB7FD
:1001D000DEB78091270190912801A0912901B0916B
:1001E0002A010197A109B109809327019093280161
:1001F000A0932901B0932A018091270190912801B1
:10020000A0912901B0912A01892B8A2B8B2B91F483
:100210000E94C8008091000190910101A09102010B
:10022000B09103018093270190932801A0932901A5
:10023000B0932A010000DF91CF91FF91EF91BF9120
:10024000AF919F918F917F916F915F914F913F916E
:100250002F910F9000925F000F901F901895CF93F1
:10026000DF9300D01F92CDB7DEB789837B836A838B
:1002700089818A3031F48A819B81BC018DE00E94A2
:100280002F0180EC90E0FC018081882F90E080724B
:100290009927892BB1F386EC90E02981FC0120831A
:1002A00080E090E00F900F900F90DF91CF91089534
:1002B000CF93DF93CDB7DEB78AE790E02AE730E04F
:1002C000F9012081206EFC0120830000DF91CF9195
:1002D0000895CF93DF931F92CDB7DEB789838CE764
:1002E00090E02981283028F02CE730E0F9012081C6
:1002F00001C02981FC01208310923A0106C0000050
:1003000080913A018F5F80933A0180913A018F305A
:10031000B0F300000F90DF91CF910895CF93DF935A
:1003200000D01F92CDB7DEB78B831A82198227C007
:1003300088E290E028E0FC01208388E290E028E257
:1003400030E0F9012081422F2B81222F30E00980FB
:1003500002C0359527950A94E2F72170242BFC0101
:10036000208388E290E028E230E0F90120812260D9
:10037000FC01208389819A8101969A8389838981EE
:100380009A810897ACF288E290E028E230E0F90127
:1003900020812460FC01208388E290E0FC0110822F
:1003A00000000F900F900F90DF91CF910895CF93A1
:1003B000DF93CDB7DEB72C970FB6F894DEBF0FBE34
:1003C000CDBF6D837E838F83988729873A874B873C
:1003D0005C878D819E81AF81B88529853A854B8563
:1003E0005C85BC01CD010E948209DC01CB018983BF
:1003F0009A83AB83BC8389819A81AB81BC81892B31
:100400008A2B8B2B29F489859A85AB85BC8511C0F5
:1004100089859A85AB85BC858D839E83AF83B8879C
:1004200089819A81AB81BC8189879A87AB87BC8798
:10043000D0CFBC01CD012C960FB6F894DEBF0FBE15
:10044000CDBFDF91CF910895CF93DF9300D000D03F
:100450001F92CDB7DEB79B838A837D836C8319821D
:1004600015C08981882F90E02A813B81820F931FDC
:100470002981222F30E04C815D81240F351FF90145
:100480002081FC01208389818F5F8983898183306A
:1004900040F300000F900F900F900F900F90DF919E
:1004A000CF9108950F931F93CF93DF93CDB7DEB70E
:1004B00064970FB6F894DEBF0FBECDBF81E290E027
:1004C000FC01108282E290E02CEFFC01208384E2A8
:1004D00090E02FEFFC01208385E290E0FC01108288
:1004E00087E290E02FEFFC01208388E290E0FC019E
:1004F00010828AE290E02FEFFC0120838BE290E0F3
:10050000FC0110820E9458018AE0ECE1F1E0DE017A
:100510001B9601900D928A95E1F785E090E098870F
:100520008F838FEF8987898580933B0182E390E0F9
:10053000A0E0B0E080933C0190933D01A0933E0188
:10054000B0933F0180913C0190913D01A0913E010B
:10055000B0913F018093400190934101A0934201EB
:10056000B093430187E494E0909345018093440164
:1005700089858093460184E690E0A0E0B0E0809316
:10058000470190934801A0934901B0934A0180919B
:10059000470190914801A0914901B0914A0180938F
:1005A0004B0190934C01A0934D01B0934E0185E017
:1005B00096E09093500180934F018985809351017B
:1005C00081E090E0A0E0B0E080935201909353016D
:1005D000A0935401B0935501809152019091530121
:1005E000A0915401B0915501809356019093570109
:1005F000A0935801B093590180EE98E090935B016D
:1006000080935A01898580935C0184E690E0A0E0A4
:10061000B0E080935D0190935E01A0935F01B09381
:10062000600180915D0190915E01A0915F01B091A8
:1006300060018093610190936201A0936301B09384
:10064000640187E696E09093660180936501898551
:100650008093670182E390E0A0E0B0E080936801BE
:1006600090936901A0936A01B0936B018091680136
:1006700090916901A0916A01B0916B0180936C0126
:1006800090936D01A0936E01B0936F018AE797E09C
:1006900090937101809370018B859C85FC01818111
:1006A0009281A381B4818B839C83AD83BE831A82A4
:1006B000198225C089819A81880F991F9E012F5F19
:1006C0003F4F820F931F0A96FC0180819181FC01AC
:1006D00021813281438154818B819C81AD81BE8196
:1006E000BC01CD010E94D701DC01CB018B839C832F
:1006F000AD83BE8389819A8101969A8389832981FA
:100700003A818F81988528173907A0F28B818A87D3
:100710008A85882F90E0A0E0B0E0BC01CD010E9466
:1007200057000E9485001A821982A1C089819A818E
:10073000880F991F9E012F5F3F4F820F931F0A96CC
:10074000FC0180819181FC012581368147815085A2
:1007500089819A81880F991FBE016F5F7F4F860F35
:10076000971F0A96FC0180819181FC018181928111
:10077000A381B481281739074A075B0709F045C0F0
:1007800089819A81880F991F9E012F5F3F4F820FA9
:10079000931F0A96FC010081118189819A81880F3B
:1007A000991F9E012F5F3F4F820F931F0A96FC01F6
:1007B00080819181FC012185328589819A81880F10
:1007C000991FAE014F5F5F4F840F951F0A96FC0182
:1007D00080819181FC018081082E000C990BF90128
:1007E0000995F801808389819A81880F991F9E015C
:1007F0002F5F3F4F820F931F0A96FC0180819181EA
:10080000FC01158216821782108689819A81880FD1
:10081000991F9E012F5F3F4F820F931F0A96FC0185
:100820006081718189819A81880F991F9E012F5F54
:100830003F4F820F931F0A96FC0180819181FC013A
:1008400025813681478150858A85882F90E0A0E0F8
:10085000B0E0820F931FA41FB51FFB018583968311
:10086000A783B08789819A8101969A838983298198
:100870003A818F8198852817390708F457CF0000EF
:10088000809126018823E1F3109226014CCFCF936B
:10089000DF93CDB7DEB760970FB6F894DEBF0FBE1B
:1008A000CDBF988B8F8780E290E0FC01808180959E
:1008B00084708A838F8598898230910509F44DC0B0
:1008C000833091052CF4009759F0019771F0A7C07F
:1008D0008330910509F47AC0049709F483C09FC05E
:1008E00081E090E0988B8F879EC08A81882381F178
:1008F00080912B01882321F481E080932D0103C096
:1009000082E080932D0182E08B8384E08C8388E0F9
:100910008D838FEF8E838FEF8F838FEF8887CE014C
:100920000396BC0182E191E00E942402CE0106966A
:10093000BC0185E191E00E942402109272011092A4
:100940002E0110922F0182E090E0988B8F876BC070
:1009500081E090E0988B8F8766C08091720184312E
:1009600080F180E00E94690183E08093300183E0A0
:100970008093320184E08093340182E080933501DA
:1009800081E08093360181E08093370181E080939C
:10099000380181E08093390181E080932C018091BE
:1009A0002D01813029F483E090E0988B8F873AC045
:1009B00080912D018230B1F584E090E0988B8F8793
:1009C00031C082E090E0988B8F872CC080912C0101
:1009D000882329F083E090E0988B8F8724C0188AC1
:1009E0001F8621C080912C01882329F084E090E0AB
:1009F000988B8F8718C080912E01823068F4809187
:100A00002F01823048F480912D01823029F482E058
:100A100090E0988B8F8707C0188A1F8604C0188AB9
:100A20001F8601C000008F8598898230910509F4E6
:100A30005AC0833091052CF4009739F0019739F1B1
:100A4000D8C005970CF0D5C070C010922B01109241
:100A50002C0110922D0182E0898788E08A871B860D
:100A600088E08C878AE08D871E86CE010996BC01BE
:100A700082E191E00E942402CE010C96BC0185E146
:100A800091E00E94240281E00E946901B3C088E7DE
:100A900090E0FC01808191818E30924018F010929C
:100AA0002B010BC088E790E0FC0180819181893A9D
:100AB000914018F481E080932B0180912B018823D1
:100AC00049F088E08093150180911601806680933B
:100AD000160190C0809115018066809315018AE00F
:100AE0008093160187C0198217C0809172018170AE
:100AF000882379F48981882F90E02981222F30E0A2
:100B00002B5E3E4FF901208126958B5E9E4FFC01A6
:100B1000208389818F5F89838981833030F380913D
:100B200072018F5F8093720165C0809135018823C7
:100B300039F480912F018F5F80932F0110922C0147
:100B400080913501853038F080912E018F5F809340
:100B50002E0110922C018A81882321F010922C0101
:100B600010922D0180E18093120180913001882F35
:100B700090E09C012150310980EF90E002C09595F2
:100B800087952A95E2F78093150181E08093130100
:100B900080913201882F90E09C012150310980EF33
:100BA00090E002C0959587952A95E2F7809316010B
:100BB00080913501882F90E09C012150310980E11E
:100BC00090E002C0959587952A95E2F780931401ED
:100BD00080913401882F90E09C012150310980E8F8
:100BE00090E002C0959587952A95E2F780931701CA
:100BF00001C000008F85988960960FB6F894DEBF1B
:100C00000FBECDBFDF91CF910895CF93DF9300D07A
:100C1000CDB7DEB79A83898389819A81009719F0CD
:100C2000019769F018C080912C01882329F081E098
:100C300090E09A83898311C01A8219820EC0809134
:100C40002C01882319F41A82198207C081E090E0F0
:100C50009A83898302C01A82198289819A810197B5
:100C600009F02DC088E790E0FC01808191818E30F1
:100C7000924068F080913001853048F481E08093A3
:100C80003101809130018F5F8093300118C088E777
:100C900090E0FC0180819181893A914068F48091D3
:100CA0003001882349F08FEF80933101809130012A
:100CB00081508093300103C01092310100C00000C8
:100CC00089819A810F900F90DF91CF910895CF93F2
:100CD000DF9300D000D01F92CDB7DEB79D838C8309
:100CE00080E290E0FC01808180958870898380E2B9
:100CF00090E0FC018081809580718A838C819D8148
:100D00008130910579F18230910501F1892BB1F59E
:100D100080912C01882349F080912D01813029F4A4
:100D200082E090E09D838C8310C080912C01882309
:100D300049F080912D01823029F481E090E09D837B
:100D40008C8303C01D821C821BC01AC080912C01A1
:100D5000882319F41D821C8213C082E090E09D83D9
:100D60008C830EC080912C01882319F41D821C8273
:100D700007C081E090E09D838C8302C01D821C82AD
:100D80008C819D818130910509F485C0029709F01D
:100D9000A7C00E94040A23E030E0B9010E946E0956
:100DA000892B09F49CC08091340190913601890F00
:100DB0008B8380913001813021F08091300185302A
:100DC00091F58B81282F30E080913201882F90E0BF
:100DD0000296821793076CF480913201853048F4B3
:100DE00081E080933301809132018F5F80933201E3
:100DF0001AC08B81282F30E080913201882F90E03B
:100E00000196281739076CF480913201882349F044
:100E10008FEF8093330180913201815080933201B2
:100E200002C01092330180913001823008F457C023
:100E300080913001853008F052C08B81282F30E03E
:100E400080913201882F90E00396821793076CF40B
:100E500080913201853048F481E0809333018091A4
:100E600032018F5F8093320115C0809132019B81E6
:100E7000981768F480913201882349F08FEF8093AE
:100E800033018091320181508093320103C010926E
:100E9000330125C024C08A81882369F08091320102
:100EA000853048F481E080933301809132018F5F77
:100EB0008093320113C08981882369F080913201C7
:100EC000882349F08FEF8093330180913201815064
:100ED0008093320103C01092310102C001C00000B2
:100EE0008C819D810F900F900F900F900F90DF914C
:100EF000CF910895CF93DF9300D01F92CDB7DEB787
:100F00009B838A838A819B81009719F0019779F0EE
:100F10001AC080912C01882339F01092730181E06E
:100F200090E09B838A8311C01B821A820EC080913D
:100F30002C01882319F41B821A8207C081E090E0FB
:100F40009B838A8302C01B821A828A819B810197BC
:100F500009F02EC180917301853008F423C180917E
:100F60003401282F30E080913801882F90E0A901CA
:100F7000481B590BCA011816190624F081E080930A
:100F800036010FC080913401282F30E08091380164
:100F9000882F90E0820F931F08971CF08FEF8093AB
:100FA00036018091340190913601890F89838091B7
:100FB00037018F3F09F06BC080913501823009F015
:100FC00066C0809130019981891770F58981282F39
:100FD00030E080913001882F90E003962817390780
:100FE0001CF581E08093370180913101882339F429
:100FF00081E08093380181E08093390115C08091B0
:101000003101813021F48FEF8093360107C0809148
:1010100031018F3F19F481E08093360181E08093A4
:10102000380181E0809339018091300199819817CE
:1010300059F08981282F30E080913001882F90E08D
:1010400003962817390719F581E0809337018091BD
:101050003101882339F481E08093380182E0809364
:10106000390115C080913101813021F48FEF8093D7
:10107000360107C0809131018F3F19F481E08093E0
:10108000360182E08093380181E0809339018091BC
:101090003701813009F06BC080913501843009F04F
:1010A00066C0809132019981891770F58981282F56
:1010B00030E080913201882F90E00396281739079D
:1010C0001CF58FEF8093370180913301882339F429
:1010D00081E08093380181E08093390115C08091CF
:1010E0003301813021F48FEF8093360107C0809166
:1010F00031018F3F19F481E08093360181E08093C4
:10110000380181E0809339018091320199819817EB
:1011100059F08981282F30E080913201882F90E0AA
:1011200003962817390719F58FEF809337018091BF
:101130003301882339F481E08093380182E0809381
:10114000390115C080913301813021F48FEF8093F4
:10115000360107C0809131018F3F19F481E08093FF
:10116000360182E08093380181E0809339018091DB
:10117000380190913601899F902D1124809134017E
:10118000890F809334018091390190913701899FB3
:10119000902D112480913501890F80933501109293
:1011A000730105C0809173018F5F8093730100000C
:1011B0008A819B810F900F900F90DF91CF910895BE
:1011C000CF93DF9300D0CDB7DEB79A83898389812F
:1011D0009A81009719F0019731F00AC081E090E000
:1011E0009A83898308C081E090E09A83898303C051
:1011F0001A821982000089819A81009709F466C0D9
:10120000019709F064C080917401833010F010924E
:10121000740180917401882F90E08B5E9E4FFC01D9
:1012200080810E948E018BE290E020917401222F38
:1012300030E02E5E3E4FF90120812095FC01208395
:1012400080912E01882F90E08130910559F08230F5
:10125000910571F0892B09F011C085E290E0FC0145
:1012600010820CC085E290E021E0FC01208306C0E2
:1012700085E290E023E0FC012083000080912F01B3
:10128000882F90E08130910531F08230910569F02E
:10129000892BA9F015C085E290E025E230E0F90144
:1012A00020812460FC0120830BC085E290E025E2D0
:1012B00030E0F90120812C60FC01208301C0000096
:1012C000809174018F5F8093740101C00000898157
:1012D0009A810F900F90DF91CF91089597FB072E81
:1012E00016F4009407D077FD09D00E94A40907FCEA
:1012F00005D03EF4909581959F4F08957095619526
:101300007F4F0895A1E21A2EAA1BBB1BFD010DC041
:10131000AA1FBB1FEE1FFF1FA217B307E407F507A5
:1013200020F0A21BB30BE40BF50B661F771F881F81
:10133000991F1A9469F760957095809590959B0117
:10134000AC01BD01CF010895AA1BBB1B51E107C031
:10135000AA1FBB1FA617B70710F0A61BB70B881F45
:10136000991F5A95A9F780959095BC01CD010895D4
:101370008F929F92AF92BF92CF92DF92EF92FF92A5
:10138000CF93DF93EC01688179818A819B8161151C
:1013900071058105910521F464E279ED8BE597E013
:1013A0002DE133EF41E050E00E94140A49015A0157
:1013B0009B01AC01A7EAB1E40E94330A6B017C01F6
:1013C000ACEEB4EFA50194010E94410ADC01CB010F
:1013D0008C0D9D1DAE1DBF1DB7FF03C00197A10958
:1013E000B04888839983AA83BB839F77DF91CF918D
:1013F000FF90EF90DF90CF90BF90AF909F908F9035
:1014000008950E94B809089588E191E00E94B80902
:101410000895A0E0B0E08093180190931901A09383
:101420001A01B0931B010895052E97FB1EF400943A
:101430000E942B0A57FD07D00E94820907FC03D0A7
:101440004EF40C942B0A50954095309521953F4FC2
:101450004F4F5F4F089590958095709561957F4FA0
:101460008F4F9F4F08950E94460AA59F900DB49FED
:10147000900DA49F800D911D11240895B7FF0C9429
:10148000330A0E94330A821B930B0895A29FB00176
:10149000B39FC001A39F700D811D1124911DB29FA8
:0E14A000700D811D1124911D0895F894FFCF49
:1014AE000100000000000002000000002F010000FB
:1014BE000000020800080A00010000003B0146017E
:0614CE005C016701510101
:00000001FF
