:100000000C9438000C9455000C9455000C94550039
:100010000C9455000C9455000C9455000C9455000C
:100020000C9455000C9455000C9455000C945500FC
:100030000C9455000C94D3000C9455000C9455006E
:100040000C9455000C9455000C9455000C945500DC
:100050000C9455000C9455000C9455000C945500CC
:100060000C9455000C9455000C9455000C945500BC
:1000700011241FBECFEFD0E1DEBFCDBF11E0A0E065
:10008000B1E0EEE3FAE002C005900D92AE31B107A7
:10009000D9F721E0AEE1B1E001C01D92A934B20769
:1000A000E1F70E9452020C941D050C940000CF93BE
:1000B000DF9300D000D0CDB7DEB769837A838B831E
:1000C0009C8389819A81AB81BC818093000190934C
:1000D0000101A0930201B09303018091000190916E
:1000E0000101A0910201B091030180931F0190933F
:1000F0002001A0932101B093220100000F900F90E6
:100100000F900F90DF91CF910895CF93DF93CDB7EC
:10011000DEB781E890E02BE0FC01208388E890E0E6
:100120002DE730E0FC01318320838FE690E022E070
:10013000FC01208384E890E0FC0111821082809110
:10014000000190910101A0910201B09103018093FF
:100150001F0190932001A0932101B09322018FE50C
:1001600090E02FE530E0F90120812068FC01208338
:100170000000DF91CF910895CF93DF93CDB7DEB725
:1001800081E890E0FC0110820000DF91CF9108959A
:10019000CF93DF93CDB7DEB781E080931E010000DF
:1001A000DF91CF9108951F920F9200905F000F9200
:1001B00011242F933F934F935F936F937F938F936C
:1001C0009F93AF93BF93EF93FF93CF93DF93CDB7FD
:1001D000DEB780911F0190912001A0912101B09183
:1001E00022010197A109B10980931F019093200179
:1001F000A0932101B093220180911F0190912001D1
:10020000A0912101B0912201892B8A2B8B2B91F493
:100210000E94C8008091000190910101A09102010B
:10022000B091030180931F0190932001A0932101BD
:10023000B09322010000DF91CF91FF91EF91BF9128
:10024000AF919F918F917F916F915F914F913F916E
:100250002F910F9000925F000F901F901895CF93F1
:10026000DF9300D01F92CDB7DEB789837B836A838B
:1002700089818A3031F48A819B81BC018DE00E94A2
:100280002F0180EC90E0FC018081882F90E080724B
:100290009927892BB1F386EC90E02981FC0120831A
:1002A00080E090E00F900F900F90DF91CF91089534
:1002B000CF93DF93CDB7DEB78AE790E02AE730E04F
:1002C000F9012081206EFC0120830000DF91CF9195
:1002D0000895CF93DF931F92CDB7DEB789838CE764
:1002E00090E02981283028F02CE730E0F9012081C6
:1002F00001C02981FC0120831092250106C0000065
:10030000809125018F5F80932501809125018F3099
:10031000B0F300000F90DF91CF910895CF93DF935A
:1003200000D01F92CDB7DEB78B831A82198227C007
:1003300088E290E028E0FC01208388E290E028E257
:1003400030E0F9012081422F2B81222F30E00980FB
:1003500002C0359527950A94E2F72170242BFC0101
:10036000208388E290E028E230E0F90120812260D9
:10037000FC01208389819A8101969A8389838981EE
:100380009A810897ACF288E290E028E230E0F90127
:1003900020812460FC01208388E290E0FC0110822F
:1003A00000000F900F900F90DF91CF910895CF93A1
:1003B000DF93CDB7DEB72C970FB6F894DEBF0FBE34
:1003C000CDBF6D837E838F83988729873A874B873C
:1003D0005C878D819E81AF81B88529853A854B8563
:1003E0005C85BC01CD010E94FB04DC01CB0189834B
:1003F0009A83AB83BC8389819A81AB81BC81892B31
:100400008A2B8B2B29F489859A85AB85BC8511C0F5
:1004100089859A85AB85BC858D839E83AF83B8879C
:1004200089819A81AB81BC8189879A87AB87BC8798
:10043000D0CFBC01CD012C960FB6F894DEBF0FBE15
:10044000CDBFDF91CF910895CF93DF9300D000D03F
:100450001F92CDB7DEB79B838A837D836C8319821D
:1004600015C08981882F90E02A813B81820F931FDC
:100470002981222F30E04C815D81240F351FF90145
:100480002081FC01208389818F5F8983898183306A
:1004900040F300000F900F900F900F900F90DF919E
:1004A000CF9108950F931F93CF93DF93CDB7DEB70E
:1004B00060970FB6F894DEBF0FBECDBF84E290E028
:1004C000FC01108285E290E02FEFFC01208387E29F
:1004D00090E02FEFFC01208388E290E0FC01108285
:1004E0008AE290E02FEFFC0120838BE290E0FC0198
:1004F00010820E94580186E0E8E1F1E0DE011B96DF
:1005000001900D928A95E1F783E090E098878F83C0
:100510008FEF898789858093260182E390E0A0E0B0
:10052000B0E08093270190932801A0932901B09314
:100530002A018091270190912801A0912901B09171
:100540002A0180932B0190932C01A0932D01B0934D
:100550002E0184EF93E09093300180932F018985E1
:100560008093310184E690E0A0E0B0E08093320116
:1005700090933301A0933401B093350180913201FF
:1005800090913301A0913401B091350180933601EF
:1005900090933701A0933801B09339018EE994E02C
:1005A00090933B0180933A01898580933C0181E0DF
:1005B00090E0A0E0B0E080933D0190933E01A093D5
:1005C0003F01B093400180913D0190913E01A09187
:1005D0003F01B09140018093410190934201A0936B
:1005E0004301B09344018CEA94E0909346018093D8
:1005F00045018B859C85FC0181819281A381B48119
:100600008B839C83AD83BE831A82198225C0898126
:100610009A81880F991F9E012F5F3F4F820F931F72
:100620000A96FC0180819181FC0121813281438104
:1006300054818B819C81AD81BE81BC01CD010E9422
:10064000D701DC01CB018B839C83AD83BE83898181
:100650009A8101969A83898329813A818F8198852D
:1006600028173907A0F28B818A878A85882F90E026
:10067000A0E0B0E0BC01CD010E9457000E948500BF
:100680001A821982A1C089819A81880F991F9E01BF
:100690002F5F3F4F820F931F0A96FC01808191814B
:1006A000FC01258136814781508589819A81880F97
:1006B000991FBE016F5F7F4F860F971F0A96FC013F
:1006C00080819181FC0181819281A381B48128176D
:1006D00039074A075B0709F045C089819A81880F6D
:1006E000991F9E012F5F3F4F820F931F0A96FC01B7
:1006F0000081118189819A81880F991F9E012F5F46
:100700003F4F820F931F0A96FC0180819181FC016B
:100710002185328589819A81880F991FAE014F5FAB
:100720005F4F840F951F0A96FC0180819181FC0127
:100730008081082E000C990BF9010995F80180833E
:1007400089819A81880F991F9E012F5F3F4F820FE9
:10075000931F0A96FC0180819181FC01158216820B
:100760001782108689819A81880F991F9E012F5FB9
:100770003F4F820F931F0A96FC016081718189812E
:100780009A81880F991F9E012F5F3F4F820F931F01
:100790000A96FC0180819181FC0125813681478187
:1007A00050858A85882F90E0A0E0B0E0820F931FEB
:1007B000A41FB51FFB0185839683A783B08789811A
:1007C0009A8101969A83898329813A818F819885BC
:1007D0002817390708F457CF000080911E0188239D
:1007E000E1F310921E014CCFCF93DF93CDB7DEB76C
:1007F0002A970FB6F894DEBF0FBECDBF9A878987C0
:1008000083E290E0FC018081882F90E0817099273D
:1008100021E0892B09F020E0298383E290E0FC01AC
:100820008081809582708A8389859A85009719F0E6
:10083000019749F03CC081E090E09A87898781E088
:100840000E94690136C08981882319F48A8188232E
:1008500041F1809124018823F9F084E090E09A87A7
:10086000898782E08B8384E08C8388E08D838FEF9F
:100870008E838FEF8F838FEF8887CE010396BC0125
:1008800082E191E00E942402CE010696BC0185E13E
:1008900091E00E9424020AC082E090E09A87898752
:1008A00005C081E090E09A87898703C002C01A865C
:1008B000198689859A858130910531F082309105BC
:1008C00079F1892B79F12FC088E790E0FC018081D4
:1008D00091818E30924018F0109224010BC088E76D
:1008E00090E0FC0180819181893A914018F481E087
:1008F0008093240180912401882349F088E080932B
:100900001501809116018066809316010CC08091BC
:1009100015018066809315018AE08093160103C05B
:10092000000001C0000089859A852A960FB6F894C8
:10093000DEBF0FBECDBFDF91CF910895CF93DF9380
:1009400000D0CDB7DEB79A83898389819A810F90D1
:100950000F90DF91CF910895CF93DF9300D0CDB763
:10096000DEB79A83898389819A81009719F001976C
:1009700031F00AC081E090E09A83898308C081E069
:1009800090E09A83898303C01A82198200008981CA
:100990009A81009741F1019709F026C080914801A2
:1009A000833010F01092480188E290E020914801D5
:1009B000222F30E02B5E3E4FF9012081FC01208385
:1009C0008BE290E020914801222F30E02E5E3E4FD6
:1009D000F90120812095FC012083809148018F5FDF
:1009E0008093480101C0000089819A810F900F9087
:1009F000DF91CF910895A1E21A2EAA1BBB1BFD0126
:100A00000DC0AA1FBB1FEE1FFF1FA217B307E407ED
:100A1000F50720F0A21BB30BE40BF50B661F771F45
:100A2000881F991F1A9469F7609570958095909525
:0E0A30009B01AC01BD01CF010895F894FFCFEA
:100A3E000100000000000002000000002F01000075
:0E0A4E000000020800080A00260131013C01E8
:00000001FF
