:100000000C9446000C9465000C9465000C946500FB
:100010000C9465000C9465000C9465000C946500CC
:100020000C9465000C9465000C9465000C946500BC
:100030000C9465000C94B4000C9465000C9465005D
:100040000C9465000C9465000C9465000C9465009C
:100050000C9465000C9465000C9465000C9465008C
:100060000C9465000C9465000C9465000C9465007C
:100070000C9465000C9465000C9465000C9465006C
:100080000C9465000C9465000C94650011241FBE4F
:10009000CFEFD0E4DEBFCDBF11E0A0E0B1E0E8EFEC
:1000A000F3E000E00BBF02C007900D92A231B10750
:1000B000D9F721E0A2E1B1E001C01D92AA31B20757
:1000C000E1F70E94E6010C94FA010C940000CF9332
:1000D000C82F8A3019F48DE00E9467008091C0001B
:1000E00085FFFCCFC093C60080E090E0CF910895DB
:1000F00060930E0170930F01809310019093110192
:100100006093120170931301809314019093150171
:1001100008958BE0809381008DE790E090938900B3
:100120008093880082E080936F0010928500109287
:10013000840080910E0190910F01A0911001B09167
:1001400011018093120190931301A0931401B093B5
:1001500015018FB780688FBF0895109281000895B0
:1001600081E08093160108951F920F920FB60F92AF
:1001700011240BB60F922F933F934F935F936F937E
:100180007F938F939F93AF93BF93EF93FF93809150
:10019000120190911301A0911401B09115010197E2
:1001A000A109B1098093120190931301A093140146
:1001B000B0931501892B8A2B8B2B91F40E94B000F0
:1001C00080910E0190910F01A0911001B091110149
:1001D0008093120190931301A0931401B093150121
:1001E000FF91EF91BF91AF919F918F917F916F910F
:1001F0005F914F913F912F910F900BBE0F900FBECB
:100200000F901F90189580911801909119018230DC
:100210009105F1F028F4009769F0019791F098C0EA
:100220008430910509F467C008F44AC0059709F4C1
:100230007DC08EC081E090E09093190180931801F9
:100240008BC082E090E0909319018093180184C0E4
:10025000009911C0019B0FC083E090E090931901B9
:100260008093180185B1893018F483B18F5F85B907
:100270001092170171C0009B11C001990FC084E05A
:1002800090E0909319018093180185B1882319F0AB
:1002900083B1815085B9109217015EC0009909C0E1
:1002A000019907C085E090E09093190180931801AF
:1002B00053C082E090E090931901809318014CC0E4
:1002C000009B07C082E090E0909319018093180191
:1002D00043C0009909C0019907C085E090E0909360
:1002E00019018093180138C083E090E090931901C0
:1002F0008093180131C0019B07C082E090E0909389
:1003000019018093180128C0009909C0019907C0FC
:1003100085E090E090931901809318011DC084E05E
:1003200090E0909319018093180116C0009909C0BC
:10033000019907C085E090E090931901809318011E
:100340000BC082E090E0909319018093180104C0E3
:1003500010921901109218018091180190911901C1
:100360008330910569F018F4019739F008958430CD
:100370009105C1F0059741F1089587E085B9089589
:10038000809117018A3041F41092170185B18930AC
:1003900018F483B18F5F85B9809117018F5F8093C7
:1003A00017010895809117018A3041F410921701C6
:1003B00085B1882319F083B1815085B980911701E7
:1003C0008F5F80931701089515B8089511B88FEFC6
:1003D00082B984B915B864E670E080E090E00E94CC
:1003E00078000E94890010921901109218018FEF75
:0803F00085B9FDCFF894FFCFA1
:1003F800000000020000000067000000000001008B
:020408000000F2
:00000001FF
