:100000000C9446000C9465000C9465000C946500FB
:100010000C9465000C9465000C9465000C946500CC
:100020000C9465000C9465000C9465000C946500BC
:100030000C9465000C94E3000C9465000C9465002E
:100040000C9465000C9465000C9465000C9465009C
:100050000C9465000C9465000C9465000C9465008C
:100060000C9465000C9465000C9465000C9465007C
:100070000C9465000C9465000C9465000C9465006C
:100080000C9465000C9465000C94650011241FBE4F
:10009000CFEFD0E4DEBFCDBF11E0A0E0B1E0EEEDE8
:1000A000F4E000E00BBF02C007900D92A231B1074F
:1000B000D9F721E0A2E1B1E001C01D92AB31B20756
:1000C000E1F70E9441020C946D020C940000CF9362
:1000D000DF9300D000D0CDB7DEB769837A838B83FE
:1000E0009C8389819A81AB81BC818093000190932C
:1000F0000101A0930201B09303018091000190914E
:100100000101A0910201B09103018093130190932A
:100110001401A0931501B093160100000F900F90E9
:100120000F900F90DF91CF910895CF93DF93CDB7CC
:10013000DEB781E890E02BE0FC01208388E890E0C6
:100140002DE730E0FC01318320838FE690E022E050
:10015000FC01208384E890E0FC01118210828091F0
:10016000000190910101A0910201B09103018093DF
:10017000130190931401A0931501B09316018FE51C
:1001800090E02FE530E0F90120812068FC01208318
:100190000000DF91CF910895CF93DF93CDB7DEB705
:1001A00081E890E0FC0110820000DF91CF9108957A
:1001B000CF93DF93CDB7DEB781E0809312010000CB
:1001C000DF91CF9108951F920F9200905F000F92E0
:1001D000112400905B000F922F933F934F935F93F6
:1001E0006F937F938F939F93AF93BF93EF93FF93FF
:1001F000CF93DF93CDB7DEB78091130190911401B7
:10020000A0911501B09116010197A109B109809340
:10021000130190931401A0931501B09316018091DE
:10022000130190911401A0911501B0911601892B31
:100230008A2B8B2B91F40E94D80080910001909121
:100240000101A0910201B0910301809313019093E9
:100250001401A0931501B09316010000DF91CF9116
:10026000FF91EF91BF91AF919F918F917F916F918E
:100270005F914F913F912F910F9000925B000F90F3
:1002800000925F000F901F901895CF93DF9300D0DE
:100290001F92CDB7DEB789837B836A8389818A30D9
:1002A00031F48A819B81BC018DE00E94450180EC84
:1002B00090E0FC018081882F90E080729927892B43
:1002C000B1F386EC90E02981FC01208380E090E08E
:1002D0000F900F900F90DF91CF910895CF93DF9300
:1002E000CDB7DEB78091190190911A018230910546
:1002F00019F18330910528F4009771F0019799F076
:100300007BC08430910509F447C08430910560F1C9
:10031000059709F459C070C081E090E090931A01EC
:10032000809319016EC082E090E090931A0180934F
:1003300019011092180165C080E290E0FC018081F3
:10034000882F90E081709927892B39F082E090E026
:1003500090931A018093190154C083E090E0909328
:100360001A01809319014DC080E290E0FC01808168
:10037000882F90E081709927892B39F483E090E0F1
:1003800090931A01809319013CC084E090E090930F
:100390001A018093190135C080E290E0FC01808150
:1003A000882F90E081709927892B39F084E090E0C4
:1003B00090931A018093190124C085E090E09093F6
:1003C0001A01809319011DC080E290E0FC01808138
:1003D000882F90E081709927892B39F485E090E08F
:1003E00090931A01809319010CC081E090E09093E2
:1003F0001A018093190105C010921A011092190177
:1004000000008091190190911A018130910519F035
:10041000029759F032C085E290E021E0FC01208390
:10042000109218011092170128C08091170188239B
:1004300051F085E290E023E230E0F9012081269539
:10044000FC01208309C085E290E023E230E0F9015D
:100450002081220FFC012083809118018F5F8093FF
:10046000180180911801823038F0109218018091A3
:10047000170180958093170100000000DF91CF9154
:100480000895CF93DF93CDB7DEB781E290E0FC0112
:10049000108282E290E02FEFFC01208384E290E062
:1004A0002FEFFC01208385E290E0FC0110826CE2DA
:1004B00071E080E090E00E9467000E949500109239
:1004C0001A01109219010E946E0100008091120120
:0E04D0008823E1F310921201F6CFF894FFCFCB
:1004DE0001000000000000020000000045010000C5
:0204EE0000000C
:00000001FF
