:100000000C9446000C9465000C9465000C946500FB
:100010000C9465000C9465000C9465000C946500CC
:100020000C9465000C9465000C9465000C946500BC
:100030000C9465000C94E3000C9465000C9465002E
:100040000C9465000C9465000C9465000C9465009C
:100050000C9465000C9465000C9465000C9465008C
:100060000C9465000C9465000C9465000C9465007C
:100070000C9465000C9465000C9465000C9465006C
:100080000C9465000C9465000C94650011241FBE4F
:10009000CFEFD0E4DEBFCDBF11E0A0E0B1E0E2E5FC
:1000A000F6E000E00BBF02C007900D92A231B1074D
:1000B000D9F721E0A2E1B1E001C01D92AA31B20757
:1000C000E1F70E94FB020C9427030C940000CF93ED
:1000D000DF9300D000D0CDB7DEB769837A838B83FE
:1000E0009C8389819A81AB81BC818093000190932C
:1000F0000101A0930201B09303018091000190914E
:100100000101A0910201B09103018093130190932A
:100110001401A0931501B093160100000F900F90E9
:100120000F900F90DF91CF910895CF93DF93CDB7CC
:10013000DEB781E890E02BE0FC01208388E890E0C6
:100140002DE730E0FC01318320838FE690E022E050
:10015000FC01208384E890E0FC01118210828091F0
:10016000000190910101A0910201B09103018093DF
:10017000130190931401A0931501B09316018FE51C
:1001800090E02FE530E0F90120812068FC01208318
:100190000000DF91CF910895CF93DF93CDB7DEB705
:1001A00081E890E0FC0110820000DF91CF9108957A
:1001B000CF93DF93CDB7DEB781E0809312010000CB
:1001C000DF91CF9108951F920F9200905F000F92E0
:1001D000112400905B000F922F933F934F935F93F6
:1001E0006F937F938F939F93AF93BF93EF93FF93FF
:1001F000CF93DF93CDB7DEB78091130190911401B7
:10020000A0911501B09116010197A109B109809340
:10021000130190931401A0931501B09316018091DE
:10022000130190911401A0911501B0911601892B31
:100230008A2B8B2B91F40E94D80080910001909121
:100240000101A0910201B0910301809313019093E9
:100250001401A0931501B09316010000DF91CF9116
:10026000FF91EF91BF91AF919F918F917F916F918E
:100270005F914F913F912F910F9000925B000F90F3
:1002800000925F000F901F901895CF93DF9300D0DE
:100290001F92CDB7DEB789837B836A8389818A30D9
:1002A00031F48A819B81BC018DE00E94450180EC84
:1002B00090E0FC018081882F90E080729927892B43
:1002C000B1F386EC90E02981FC01208380E090E08E
:1002D0000F900F900F90DF91CF910895CF93DF9300
:1002E000CDB7DEB780911801909119018230910548
:1002F00011F18330910528F4009779F00197A1F06E
:100300001DC18430910509F4C4C08430910508F4FE
:100310008DC0059709F4F0C011C181E090E0909381
:100320001901809318010FC182E090E090931901A8
:100330008093180108C180E290E0FC018081882F41
:1003400090E081709927892B11F580E290E0FC0103
:100350008081882F90E082709927892BC1F083E0FB
:1003600090E0909319018093180185E290E0FC01E0
:100370008081893048F485E290E023E230E0F901A1
:1003800020812F5FFC012083109217014EC080E274
:1003900090E0FC018081882F90E081709927892B63
:1003A00011F180E290E0FC018081882F90E0827062
:1003B0009927892BC1F484E090E0909319018093F0
:1003C000180185E290E0FC018081882349F085E2F4
:1003D00090E023E230E0F90120812150FC012083EC
:1003E0001092170122C080E290E0FC018081882FEA
:1003F00090E081709927892B89F480E290E0FC01DC
:100400008081882F90E082709927892B39F485E0CC
:1004100090E0909319018093180107C082E090E06A
:1004200090931901809318018EC08DC080E290E0F6
:10043000FC018081882F90E081709927892B39F009
:1004400082E090E090931901809318017CC080E2D3
:1004500090E0FC018081882F90E081709927892BA2
:1004600089F480E290E0FC018081882F90E0827026
:100470009927892B39F485E090E0909319018093B6
:10048000180161C083E090E09093190180931801F6
:100490005AC080E290E0FC018081882F90E0827059
:1004A0009927892B39F082E090E09093190180938D
:1004B000180149C080E290E0FC018081882F90E023
:1004C00081709927892B89F480E290E0FC0180817A
:1004D000882F90E082709927892B39F485E090E08D
:1004E00090931901809318012EC084E090E09093BE
:1004F00019018093180127C080E290E0FC018081FF
:10050000882F90E081709927892B89F480E290E010
:10051000FC018081882F90E082709927892B39F423
:1005200085E090E090931901809318010CC082E05F
:1005300090E0909319018093180105C01092190161
:1005400010921801000080911801909119018330D8
:10055000910591F08430910518F4019739F047C066
:100560008430910521F10597E9F141C085E290E0E1
:1005700027E0FC0120833BC0809117018A3089F479
:100580001092170185E290E0FC018081893048F4E7
:1005900085E290E023E230E0F90120812F5FFC0149
:1005A0002083809117018F5F8093170120C0809175
:1005B00017018A3089F41092170185E290E0FC015E
:1005C0008081882349F085E290E023E230E0F90160
:1005D00020812150FC012083809117018F5F80933F
:1005E000170105C085E290E0FC01108200000000C8
:1005F000DF91CF910895CF93DF93CDB7DEB781E23E
:1006000090E0FC01108282E290E02FEFFC01208359
:1006100084E290E02FEFFC01208385E290E0FC0172
:10062000108264E670E080E090E00E9467000E9423
:10063000950010921901109218010E946E0100009D
:10064000809112018823E1F310921201F6CFF89401
:02065000FFCFDA
:10065200010000000000000200000000450100004F
:02066200000096
:00000001FF
