:100000000C9446000C9465000C9465000C946500FB
:100010000C9465000C9465000C9465000C946500CC
:100020000C9465000C9465000C9465000C946500BC
:100030000C9465000C9465000C9465000C946500AC
:100040000C9465000C9465000C9465000C9465009C
:100050000C9465000C9465000C9465000C9465008C
:100060000C9465000C9465000C9465000C9465007C
:100070000C9465000C9465000C9465000C9465006C
:100080000C9465000C9465000C94650011241FBE4F
:10009000CFEFD0E4DEBFCDBF11E0A0E0B1E0ECEAED
:1000A000F2E000E00BBF02C007900D92AE30B10746
:1000B000D9F721E0AEE0B1E001C01D92A231B20754
:1000C000E1F70E943B010C9454010C940000CF9383
:1000D000DF9300D01F92CDB7DEB789837B836A831D
:1000E00089818A3031F48A819B81BC018DE00E9434
:1000F000670080EC90E0FC018081882F90E08072A6
:100100009927892BB1F386EC90E02981FC012083AB
:1001100080E090E00F900F900F90DF91CF910895C5
:10012000CF93DF93CDB7DEB780911001909111018D
:100130008130910589F08130910538F08230910548
:1001400091F0039709F469C080C081E090E090933A
:100150001101809310017DC082E090E09093110125
:100160008093100176C080E290E0FC018081882FAE
:1001700090E081709927892B09F048C083E290E0D4
:10018000FC0180818F3351F485E290E0FC01108204
:1001900080910F01809580930F0131C080910F01F4
:1001A000082E000C990B81709927892B99F083E216
:1001B00090E0FC018081869580930E0180910E0174
:1001C000805E80930E0185E290E020910E01FC019B
:1001D000208315C083E290E0FC018081882F90E0AD
:1001E000880F991F80930E0180910E018F5F80937D
:1001F0000E0185E290E020910E01FC01208383E056
:1002000090E0909311018093100123C082E090E070
:1002100090931101809310011CC080E290E0FC01DA
:100220008081882F90E081709927892B39F483E0B1
:1002300090E090931101809310010BC082E090E058
:10024000909311018093100104C01092110110923B
:1002500010018091100190911101019709F007C0E0
:1002600085E290E0FC01108210920F010000000076
:10027000DF91CF910895CF93DF93CDB7DEB781E2C1
:1002800090E0FC01108282E290E02FEFFC012083DD
:1002900084E290E02FEFFC01208385E290E0FC01F6
:0C02A00010820E949000FDCFF894FFCF68
:0E02AC000000000200000000670000000000DB
:00000001FF
